{
  "contractName": "CryptoDicks",
  "abi": [
    {
      "inputs": [],
      "stateMutability": "nonpayable",
      "type": "constructor"
    },
    {
      "anonymous": false,
      "inputs": [
        {
          "indexed": true,
          "internalType": "address",
          "name": "owner",
          "type": "address"
        },
        {
          "indexed": true,
          "internalType": "address",
          "name": "approved",
          "type": "address"
        },
        {
          "indexed": true,
          "internalType": "uint256",
          "name": "tokenId",
          "type": "uint256"
        }
      ],
      "name": "Approval",
      "type": "event"
    },
    {
      "anonymous": false,
      "inputs": [
        {
          "indexed": true,
          "internalType": "address",
          "name": "owner",
          "type": "address"
        },
        {
          "indexed": true,
          "internalType": "address",
          "name": "operator",
          "type": "address"
        },
        {
          "indexed": false,
          "internalType": "bool",
          "name": "approved",
          "type": "bool"
        }
      ],
      "name": "ApprovalForAll",
      "type": "event"
    },
    {
      "anonymous": false,
      "inputs": [
        {
          "indexed": true,
          "internalType": "address",
          "name": "previousOwner",
          "type": "address"
        },
        {
          "indexed": true,
          "internalType": "address",
          "name": "newOwner",
          "type": "address"
        }
      ],
      "name": "OwnershipTransferred",
      "type": "event"
    },
    {
      "anonymous": false,
      "inputs": [
        {
          "indexed": true,
          "internalType": "address",
          "name": "from",
          "type": "address"
        },
        {
          "indexed": true,
          "internalType": "address",
          "name": "to",
          "type": "address"
        },
        {
          "indexed": true,
          "internalType": "uint256",
          "name": "tokenId",
          "type": "uint256"
        }
      ],
      "name": "Transfer",
      "type": "event"
    },
    {
      "inputs": [
        {
          "internalType": "address",
          "name": "to",
          "type": "address"
        },
        {
          "internalType": "uint256",
          "name": "tokenId",
          "type": "uint256"
        }
      ],
      "name": "approve",
      "outputs": [],
      "stateMutability": "nonpayable",
      "type": "function"
    },
    {
      "inputs": [
        {
          "internalType": "address",
          "name": "owner",
          "type": "address"
        }
      ],
      "name": "balanceOf",
      "outputs": [
        {
          "internalType": "uint256",
          "name": "",
          "type": "uint256"
        }
      ],
      "stateMutability": "view",
      "type": "function",
      "constant": true
    },
    {
      "inputs": [],
      "name": "claimFee",
      "outputs": [
        {
          "internalType": "uint256",
          "name": "",
          "type": "uint256"
        }
      ],
      "stateMutability": "view",
      "type": "function",
      "constant": true
    },
    {
      "inputs": [
        {
          "internalType": "uint256",
          "name": "tokenId",
          "type": "uint256"
        }
      ],
      "name": "getApproved",
      "outputs": [
        {
          "internalType": "address",
          "name": "",
          "type": "address"
        }
      ],
      "stateMutability": "view",
      "type": "function",
      "constant": true
    },
    {
      "inputs": [
        {
          "internalType": "address",
          "name": "owner",
          "type": "address"
        },
        {
          "internalType": "address",
          "name": "operator",
          "type": "address"
        }
      ],
      "name": "isApprovedForAll",
      "outputs": [
        {
          "internalType": "bool",
          "name": "",
          "type": "bool"
        }
      ],
      "stateMutability": "view",
      "type": "function",
      "constant": true
    },
    {
      "inputs": [],
      "name": "name",
      "outputs": [
        {
          "internalType": "string",
          "name": "",
          "type": "string"
        }
      ],
      "stateMutability": "view",
      "type": "function",
      "constant": true
    },
    {
      "inputs": [],
      "name": "owner",
      "outputs": [
        {
          "internalType": "address",
          "name": "",
          "type": "address"
        }
      ],
      "stateMutability": "view",
      "type": "function",
      "constant": true
    },
    {
      "inputs": [
        {
          "internalType": "uint256",
          "name": "tokenId",
          "type": "uint256"
        }
      ],
      "name": "ownerOf",
      "outputs": [
        {
          "internalType": "address",
          "name": "",
          "type": "address"
        }
      ],
      "stateMutability": "view",
      "type": "function",
      "constant": true
    },
    {
      "inputs": [],
      "name": "renounceOwnership",
      "outputs": [],
      "stateMutability": "nonpayable",
      "type": "function"
    },
    {
      "inputs": [
        {
          "internalType": "address",
          "name": "from",
          "type": "address"
        },
        {
          "internalType": "address",
          "name": "to",
          "type": "address"
        },
        {
          "internalType": "uint256",
          "name": "tokenId",
          "type": "uint256"
        }
      ],
      "name": "safeTransferFrom",
      "outputs": [],
      "stateMutability": "nonpayable",
      "type": "function"
    },
    {
      "inputs": [
        {
          "internalType": "address",
          "name": "from",
          "type": "address"
        },
        {
          "internalType": "address",
          "name": "to",
          "type": "address"
        },
        {
          "internalType": "uint256",
          "name": "tokenId",
          "type": "uint256"
        },
        {
          "internalType": "bytes",
          "name": "_data",
          "type": "bytes"
        }
      ],
      "name": "safeTransferFrom",
      "outputs": [],
      "stateMutability": "nonpayable",
      "type": "function"
    },
    {
      "inputs": [
        {
          "internalType": "address",
          "name": "operator",
          "type": "address"
        },
        {
          "internalType": "bool",
          "name": "approved",
          "type": "bool"
        }
      ],
      "name": "setApprovalForAll",
      "outputs": [],
      "stateMutability": "nonpayable",
      "type": "function"
    },
    {
      "inputs": [
        {
          "internalType": "bytes4",
          "name": "interfaceId",
          "type": "bytes4"
        }
      ],
      "name": "supportsInterface",
      "outputs": [
        {
          "internalType": "bool",
          "name": "",
          "type": "bool"
        }
      ],
      "stateMutability": "view",
      "type": "function",
      "constant": true
    },
    {
      "inputs": [],
      "name": "symbol",
      "outputs": [
        {
          "internalType": "string",
          "name": "",
          "type": "string"
        }
      ],
      "stateMutability": "view",
      "type": "function",
      "constant": true
    },
    {
      "inputs": [
        {
          "internalType": "uint256",
          "name": "tokenId",
          "type": "uint256"
        }
      ],
      "name": "tokenURI",
      "outputs": [
        {
          "internalType": "string",
          "name": "",
          "type": "string"
        }
      ],
      "stateMutability": "view",
      "type": "function",
      "constant": true
    },
    {
      "inputs": [],
      "name": "totalSupply",
      "outputs": [
        {
          "internalType": "uint256",
          "name": "",
          "type": "uint256"
        }
      ],
      "stateMutability": "view",
      "type": "function",
      "constant": true
    },
    {
      "inputs": [
        {
          "internalType": "address",
          "name": "from",
          "type": "address"
        },
        {
          "internalType": "address",
          "name": "to",
          "type": "address"
        },
        {
          "internalType": "uint256",
          "name": "tokenId",
          "type": "uint256"
        }
      ],
      "name": "transferFrom",
      "outputs": [],
      "stateMutability": "nonpayable",
      "type": "function"
    },
    {
      "inputs": [
        {
          "internalType": "address",
          "name": "newOwner",
          "type": "address"
        }
      ],
      "name": "transferOwnership",
      "outputs": [],
      "stateMutability": "nonpayable",
      "type": "function"
    },
    {
      "inputs": [],
      "name": "claim",
      "outputs": [],
      "stateMutability": "payable",
      "type": "function",
      "payable": true
    },
    {
      "inputs": [
        {
          "internalType": "uint256",
          "name": "_tokenId",
          "type": "uint256"
        }
      ],
      "name": "get",
      "outputs": [
        {
          "components": [
            {
              "internalType": "uint8",
              "name": "background",
              "type": "uint8"
            },
            {
              "internalType": "uint8",
              "name": "skin",
              "type": "uint8"
            },
            {
              "internalType": "uint8",
              "name": "hat",
              "type": "uint8"
            },
            {
              "internalType": "uint8",
              "name": "eye",
              "type": "uint8"
            },
            {
              "internalType": "uint8",
              "name": "mouse",
              "type": "uint8"
            },
            {
              "internalType": "uint8",
              "name": "clothe",
              "type": "uint8"
            },
            {
              "internalType": "uint8",
              "name": "arm",
              "type": "uint8"
            },
            {
              "internalType": "uint8",
              "name": "special",
              "type": "uint8"
            }
          ],
          "internalType": "struct UniqueMetadata.Metadata",
          "name": "",
          "type": "tuple"
        }
      ],
      "stateMutability": "view",
      "type": "function",
      "constant": true
    },
    {
      "inputs": [],
      "name": "currentSupply",
      "outputs": [
        {
          "internalType": "uint256",
          "name": "",
          "type": "uint256"
        }
      ],
      "stateMutability": "view",
      "type": "function",
      "constant": true
    },
    {
      "inputs": [
        {
          "internalType": "string",
          "name": "_baseUri",
          "type": "string"
        }
      ],
      "name": "setBaseURI",
      "outputs": [],
      "stateMutability": "nonpayable",
      "type": "function"
    },
    {
      "inputs": [
        {
          "internalType": "uint256",
          "name": "_newPrice",
          "type": "uint256"
        }
      ],
      "name": "setClaimFee",
      "outputs": [],
      "stateMutability": "nonpayable",
      "type": "function"
    }
  ],
  "bytecode": "0x608060405260405180610200016040528062015f9062ffffff1681526020016201388062ffffff1681526020016201117062ffffff16815260200161ea6062ffffff16815260200161c35062ffffff168152602001619c4062ffffff16815260200161753062ffffff1681526020016159d862ffffff168152602001613e8062ffffff168152602001612af862ffffff168152602001611b5862ffffff168152602001610fa062ffffff168152602001610bb862ffffff1681526020016107d062ffffff1681526020016103e862ffffff168152602001600062ffffff168152506008906010620000f2929190620017ed565b50604051806101a0016040528062015f9062ffffff1681526020016201388062ffffff1681526020016201117062ffffff16815260200161ea6062ffffff16815260200161c35062ffffff168152602001619c4062ffffff16815260200161753062ffffff168152602001614e2062ffffff168152602001613a9862ffffff16815260200161271062ffffff16815260200161138862ffffff1681526020016103e862ffffff168152602001600062ffffff16815250600990600d620001ba92919062001846565b506040518061020001604052806201117062ffffff16815260200161fa0062ffffff16815260200161e29062ffffff16815260200161cb2062ffffff16815260200161b3b062ffffff168152602001619c4062ffffff1681526020016184d062ffffff168152602001616d6062ffffff1681526020016155f062ffffff168152602001613e8062ffffff16815260200161271062ffffff16815260200161138862ffffff168152602001610bb862ffffff1681526020016105dc62ffffff1681526020016101f462ffffff168152602001600062ffffff16815250600a906010620002a7929190620017ed565b506040518060e001604052806188b861ffff1681526020016155f061ffff16815260200161271061ffff16815260200161177061ffff168152602001610bb861ffff1681526020016103e861ffff168152602001600061ffff16815250600b906007620003169291906200189f565b506040518060e0016040528061271061ffff16815260200161177061ffff168152602001610dac61ffff1681526020016107d061ffff1681526020016103e861ffff1681526020016103e861ffff168152602001600061ffff16815250600c906007620003859291906200189f565b506040518060600160405280612ee061ffff16815260200161138861ffff168152602001600061ffff16815250600d906003620003c4929190620018f7565b506040518060400160405280611f4061ffff168152602001600061ffff16815250600e906002620003f79291906200194f565b5060405180606001604052806107d061ffff1681526020016103e861ffff168152602001600061ffff16815250600f90600362000436929190620018f7565b506040518060600160405280602c81526020016200651a602c91396011908051906020019062000468929190620019a7565b5066038d7ea4c680006012556127106013553480156200048757600080fd5b506040518060400160405280600b81526020017f43727970746f4469636b730000000000000000000000000000000000000000008152506040518060400160405280600481526020017f4449434b0000000000000000000000000000000000000000000000000000000081525081600090805190602001906200050c929190620019a7565b50806001908051906020019062000525929190620019a7565b505050620005486200053c6200058360201b60201c565b6200058b60201b60201c565b60005b60058110156200057c57620005656200065160201b60201c565b508080620005739062001aed565b9150506200054b565b506200230d565b600033905090565b6000601060009054906101000a900473ffffffffffffffffffffffffffffffffffffffff16905081601060006101000a81548173ffffffffffffffffffffffffffffffffffffffff021916908373ffffffffffffffffffffffffffffffffffffffff1602179055508173ffffffffffffffffffffffffffffffffffffffff168173ffffffffffffffffffffffffffffffffffffffff167f8be0079c531659141344cd1fd0a4f28419497f9722a3daafe3b4186f6b6457e060405160405180910390a35050565b60006013546200066d6014620007f160201b620013301760201c565b106200067857600080fd5b6200068f6014620007ff60201b6200133e1760201c565b6000620006a86014620007f160201b620013301760201c565b9050620006ba6200081560201b60201c565b6015600083815260200190815260200160002060008201518160000160006101000a81548160ff021916908360ff16021790555060208201518160000160016101000a81548160ff021916908360ff16021790555060408201518160000160026101000a81548160ff021916908360ff16021790555060608201518160000160036101000a81548160ff021916908360ff16021790555060808201518160000160046101000a81548160ff021916908360ff16021790555060a08201518160000160056101000a81548160ff021916908360ff16021790555060c08201518160000160066101000a81548160ff021916908360ff16021790555060e08201518160000160076101000a81548160ff021916908360ff160217905550905050620007ea3382620008d260201b60201c565b8091505090565b600081600001549050919050565b6001816000016000828254019250508190555050565b6200081f62001a38565b6200082962001a38565b60005b600115620008ca5762000844620008f860201b60201c565b91506200085782620009eb60201b60201c565b9050600115156007600083815260200190815260200160002060009054906101000a900460ff16151514620008b85760016007600083815260200190815260200160002060006101000a81548160ff021916908315150217905550620008ca565b620008c262001a38565b91506200082c565b819250505090565b620008f482826040518060200160405280600081525062000a4e60201b60201c565b5050565b6200090262001a38565b6000806000806000806000806200091e62000abc60201b60201c565b905060018160ff1610156200095f576200093d62000b7e60201b60201c565b809850819950829a50839b50849c50859d50869e50505050505050506200098c565b6200096f62000c9860201b60201c565b809850819950829a50839b50849c50859d50869e50505050505050505b6040518061010001604052808960ff1681526020018860ff1681526020018760ff1681526020018660ff1681526020018560ff1681526020018460ff1681526020018360ff1681526020018260ff168152509850505050505050505090565b6000816000015182602001518360400151846060015185608001518660a001518760c001518860e0015160405160200162000a2e98979695949392919062001b84565b6040516020818303038152906040528051906020012060001c9050919050565b62000a60838362000ced60201b60201c565b62000a75600084848462000ed360201b60201c565b62000ab7576040517f08c379a000000000000000000000000000000000000000000000000000000000815260040162000aae9062001cad565b60405180910390fd5b505050565b600062000ad56006620007ff60201b6200133e1760201c565b62000b79620186a062000af46006620007f160201b620013301760201c565b600f80548060200260200160405190810160405280929190818152602001828054801562000b4257602002820191906000526020600020905b81548152602001906001019080831162000b2d575b50505050507f73706563000000000000000000000000000000000000000000000000000000006200107d60201b620013541760201c565b905090565b60008060008060008060008062000b9a620010b260201b60201c565b9050600062000bae6200117460201b60201c565b9050600062000bc26200123660201b60201c565b9050600062000bd6620012f860201b60201c565b9050600062000bea620013ba60201b60201c565b9050600062000bfe6200147c60201b60201c565b905060018260ff16141562000c2f5785858585600086869c509c509c509c509c509c509c5050505050505062000c8f565b600f8460ff16141562000c5e5785858585600086869c509c509c509c509c509c509c5050505050505062000c8f565b600062000c706200153e60201b60201c565b9050868686868487879d509d509d509d509d509d509d50505050505050505b90919293949596565b60008060008060008060008062000cb4620010b260201b60201c565b9050600062000cc86200117460201b60201c565b9050818160008060008060009850985098509850985098509850505090919293949596565b600073ffffffffffffffffffffffffffffffffffffffff168273ffffffffffffffffffffffffffffffffffffffff16141562000d60576040517f08c379a000000000000000000000000000000000000000000000000000000000815260040162000d579062001d1f565b60405180910390fd5b62000d71816200160060201b60201c565b1562000db4576040517f08c379a000000000000000000000000000000000000000000000000000000000815260040162000dab9062001d91565b60405180910390fd5b62000dc8600083836200166c60201b60201c565b6001600360008473ffffffffffffffffffffffffffffffffffffffff1673ffffffffffffffffffffffffffffffffffffffff168152602001908152602001600020600082825462000e1a919062001db3565b92505081905550816002600083815260200190815260200160002060006101000a81548173ffffffffffffffffffffffffffffffffffffffff021916908373ffffffffffffffffffffffffffffffffffffffff160217905550808273ffffffffffffffffffffffffffffffffffffffff16600073ffffffffffffffffffffffffffffffffffffffff167fddf252ad1be2c89b69c2b068fc378daa952ba7f163c4a11628f55a4df523b3ef60405160405180910390a45050565b600062000f018473ffffffffffffffffffffffffffffffffffffffff166200167160201b620013791760201c565b1562001070578373ffffffffffffffffffffffffffffffffffffffff1663150b7a0262000f336200058360201b60201c565b8786866040518563ffffffff1660e01b815260040162000f57949392919062001f0a565b6020604051808303816000875af192505050801562000f9657506040513d601f19601f8201168201806040525081019062000f93919062001fc0565b60015b6200101f573d806000811462000fc9576040519150601f19603f3d011682016040523d82523d6000602084013e62000fce565b606091505b5060008151141562001017576040517f08c379a00000000000000000000000000000000000000000000000000000000081526004016200100e9062001cad565b60405180910390fd5b805181602001fd5b63150b7a0260e01b7bffffffffffffffffffffffffffffffffffffffffffffffffffffffff1916817bffffffffffffffffffffffffffffffffffffffffffffffffffffffff19161491505062001075565b600190505b949350505050565b600080620010938686856200168460201b60201c565b9050620010a78185620016ed60201b60201c565b915050949350505050565b6000620010cb6006620007ff60201b6200133e1760201c565b6200116f620186a0620010ea6006620007f160201b620013301760201c565b60088054806020026020016040519081016040528092919081815260200182805480156200113857602002820191906000526020600020905b81548152602001906001019080831162001123575b50505050507f6261636b000000000000000000000000000000000000000000000000000000006200107d60201b620013541760201c565b905090565b60006200118d6006620007ff60201b6200133e1760201c565b62001231620186a0620011ac6006620007f160201b620013301760201c565b6009805480602002602001604051908101604052809291908181526020018280548015620011fa57602002820191906000526020600020905b815481526020019060010190808311620011e5575b50505050507f736b696e000000000000000000000000000000000000000000000000000000006200107d60201b620013541760201c565b905090565b60006200124f6006620007ff60201b6200133e1760201c565b620012f3620186a06200126e6006620007f160201b620013301760201c565b600a805480602002602001604051908101604052809291908181526020018280548015620012bc57602002820191906000526020600020905b815481526020019060010190808311620012a7575b50505050507f68617400000000000000000000000000000000000000000000000000000000006200107d60201b620013541760201c565b905090565b6000620013116006620007ff60201b6200133e1760201c565b620013b5620186a0620013306006620007f160201b620013301760201c565b600b8054806020026020016040519081016040528092919081815260200182805480156200137e57602002820191906000526020600020905b81548152602001906001019080831162001369575b50505050507f65796500000000000000000000000000000000000000000000000000000000006200107d60201b620013541760201c565b905090565b6000620013d36006620007ff60201b6200133e1760201c565b62001477620186a0620013f26006620007f160201b620013301760201c565b600d8054806020026020016040519081016040528092919081815260200182805480156200144057602002820191906000526020600020905b8154815260200190600101908083116200142b575b50505050507f636c6f74000000000000000000000000000000000000000000000000000000006200107d60201b620013541760201c565b905090565b6000620014956006620007ff60201b6200133e1760201c565b62001539620186a0620014b46006620007f160201b620013301760201c565b600e8054806020026020016040519081016040528092919081815260200182805480156200150257602002820191906000526020600020905b815481526020019060010190808311620014ed575b50505050507f61726d73000000000000000000000000000000000000000000000000000000006200107d60201b620013541760201c565b905090565b6000620015576006620007ff60201b6200133e1760201c565b620015fb620186a0620015766006620007f160201b620013301760201c565b600c805480602002602001604051908101604052809291908181526020018280548015620015c457602002820191906000526020600020905b815481526020019060010190808311620015af575b50505050507f6d6f7573000000000000000000000000000000000000000000000000000000006200107d60201b620013541760201c565b905090565b60008073ffffffffffffffffffffffffffffffffffffffff166002600084815260200190815260200160002060009054906101000a900473ffffffffffffffffffffffffffffffffffffffff1673ffffffffffffffffffffffffffffffffffffffff1614159050919050565b505050565b600080823b905060008111915050919050565b60006001808562001696919062001db3565b4443323a8789604051602001620016b3969594939291906200208c565b6040516020818303038152906040528051906020012060001c620016d8919062002137565b620016e4919062001db3565b90509392505050565b6000805b825181101562001756578281815181106200171157620017106200216f565b5b6020026020010151841115620017405762001737816200179a60201b6200138c1760201c565b91505062001794565b80806200174d9062001aed565b915050620016f1565b506040517f08c379a00000000000000000000000000000000000000000000000000000000081526004016200178b90620021ee565b60405180910390fd5b92915050565b600060ff8016821115620017e5576040517f08c379a0000000000000000000000000000000000000000000000000000000008152600401620017dc9062002286565b60405180910390fd5b819050919050565b82805482825590600052602060002090810192821562001833579160200282015b8281111562001832578251829062ffffff169055916020019190600101906200180e565b5b50905062001842919062001a95565b5090565b8280548282559060005260206000209081019282156200188c579160200282015b828111156200188b578251829062ffffff1690559160200191906001019062001867565b5b5090506200189b919062001a95565b5090565b828054828255906000526020600020908101928215620018e4579160200282015b82811115620018e3578251829061ffff16905591602001919060010190620018c0565b5b509050620018f3919062001a95565b5090565b8280548282559060005260206000209081019282156200193c579160200282015b828111156200193b578251829061ffff1690559160200191906001019062001918565b5b5090506200194b919062001a95565b5090565b82805482825590600052602060002090810192821562001994579160200282015b8281111562001993578251829061ffff1690559160200191906001019062001970565b5b509050620019a3919062001a95565b5090565b828054620019b590620022d7565b90600052602060002090601f016020900481019282620019d9576000855562001a25565b82601f10620019f457805160ff191683800117855562001a25565b8280016001018555821562001a25579182015b8281111562001a2457825182559160200191906001019062001a07565b5b50905062001a34919062001a95565b5090565b604051806101000160405280600060ff168152602001600060ff168152602001600060ff168152602001600060ff168152602001600060ff168152602001600060ff168152602001600060ff168152602001600060ff1681525090565b5b8082111562001ab057600081600090555060010162001a96565b5090565b7f4e487b7100000000000000000000000000000000000000000000000000000000600052601160045260246000fd5b6000819050919050565b600062001afa8262001ae3565b91507fffffffffffffffffffffffffffffffffffffffffffffffffffffffffffffffff82141562001b305762001b2f62001ab4565b5b600182019050919050565b600060ff82169050919050565b60008160f81b9050919050565b600062001b628262001b48565b9050919050565b62001b7e62001b788262001b3b565b62001b55565b82525050565b600062001b92828b62001b69565b60018201915062001ba4828a62001b69565b60018201915062001bb6828962001b69565b60018201915062001bc8828862001b69565b60018201915062001bda828762001b69565b60018201915062001bec828662001b69565b60018201915062001bfe828562001b69565b60018201915062001c10828462001b69565b6001820191508190509998505050505050505050565b600082825260208201905092915050565b7f4552433732313a207472616e7366657220746f206e6f6e20455243373231526560008201527f63656976657220696d706c656d656e7465720000000000000000000000000000602082015250565b600062001c9560328362001c26565b915062001ca28262001c37565b604082019050919050565b6000602082019050818103600083015262001cc88162001c86565b9050919050565b7f4552433732313a206d696e7420746f20746865207a65726f2061646472657373600082015250565b600062001d0760208362001c26565b915062001d148262001ccf565b602082019050919050565b6000602082019050818103600083015262001d3a8162001cf8565b9050919050565b7f4552433732313a20746f6b656e20616c7265616479206d696e74656400000000600082015250565b600062001d79601c8362001c26565b915062001d868262001d41565b602082019050919050565b6000602082019050818103600083015262001dac8162001d6a565b9050919050565b600062001dc08262001ae3565b915062001dcd8362001ae3565b9250827fffffffffffffffffffffffffffffffffffffffffffffffffffffffffffffffff0382111562001e055762001e0462001ab4565b5b828201905092915050565b600073ffffffffffffffffffffffffffffffffffffffff82169050919050565b600062001e3d8262001e10565b9050919050565b62001e4f8162001e30565b82525050565b62001e608162001ae3565b82525050565b600081519050919050565b600082825260208201905092915050565b60005b8381101562001ea257808201518184015260208101905062001e85565b8381111562001eb2576000848401525b50505050565b6000601f19601f8301169050919050565b600062001ed68262001e66565b62001ee2818562001e71565b935062001ef481856020860162001e82565b62001eff8162001eb8565b840191505092915050565b600060808201905062001f21600083018762001e44565b62001f30602083018662001e44565b62001f3f604083018562001e55565b818103606083015262001f53818462001ec9565b905095945050505050565b600080fd5b60007fffffffff0000000000000000000000000000000000000000000000000000000082169050919050565b62001f9a8162001f63565b811462001fa657600080fd5b50565b60008151905062001fba8162001f8f565b92915050565b60006020828403121562001fd95762001fd862001f5e565b5b600062001fe98482850162001fa9565b91505092915050565b6000819050919050565b620020116200200b8262001ae3565b62001ff2565b82525050565b60008160601b9050919050565b6000620020318262002017565b9050919050565b6000620020458262002024565b9050919050565b620020616200205b8262001e30565b62002038565b82525050565b6000819050919050565b62002086620020808262001f63565b62002067565b82525050565b60006200209a828962001ffc565b602082019150620020ac828862001ffc565b602082019150620020be82876200204c565b601482019150620020d0828662001ffc565b602082019150620020e2828562002071565b600482019150620020f4828462001ffc565b602082019150819050979650505050505050565b7f4e487b7100000000000000000000000000000000000000000000000000000000600052601260045260246000fd5b6000620021448262001ae3565b9150620021518362001ae3565b92508262002164576200216362002108565b5b828206905092915050565b7f4e487b7100000000000000000000000000000000000000000000000000000000600052603260045260246000fd5b7f44657461696c48656c7065723a3a7069636b4974656d733a204e6f206974656d600082015250565b6000620021d660208362001c26565b9150620021e3826200219e565b602082019050919050565b600060208201905081810360008301526200220981620021c7565b9050919050565b7f53616665436173743a2076616c756520646f65736e27742066697420696e203860008201527f2062697473000000000000000000000000000000000000000000000000000000602082015250565b60006200226e60258362001c26565b91506200227b8262002210565b604082019050919050565b60006020820190508181036000830152620022a1816200225f565b9050919050565b7f4e487b7100000000000000000000000000000000000000000000000000000000600052602260045260246000fd5b60006002820490506001821680620022f057607f821691505b60208210811415620023075762002306620022a8565b5b50919050565b6141fd806200231d6000396000f3fe6080604052600436106101405760003560e01c806370a08231116100b657806399d32fc41161006f57806399d32fc41461043b578063a22cb46514610466578063b88d4fde1461048f578063c87b56dd146104b8578063e985e9c5146104f5578063f2fde38b1461053257610140565b806370a0823114610329578063715018a614610366578063771282f61461037d5780638da5cb5b146103a85780639507d39a146103d357806395d89b411461041057610140565b806323b872dd1161010857806323b872dd1461023e5780632e75ab501461026757806342842e0e146102905780634e71d92d146102b957806355f804b3146102c35780636352211e146102ec57610140565b806301ffc9a71461014557806306fdde0314610182578063081812fc146101ad578063095ea7b3146101ea57806318160ddd14610213575b600080fd5b34801561015157600080fd5b5061016c60048036038101906101679190612b26565b61055b565b6040516101799190612b6e565b60405180910390f35b34801561018e57600080fd5b5061019761063d565b6040516101a49190612c22565b60405180910390f35b3480156101b957600080fd5b506101d460048036038101906101cf9190612c7a565b6106cf565b6040516101e19190612ce8565b60405180910390f35b3480156101f657600080fd5b50610211600480360381019061020c9190612d2f565b610754565b005b34801561021f57600080fd5b5061022861086c565b6040516102359190612d7e565b60405180910390f35b34801561024a57600080fd5b5061026560048036038101906102609190612d99565b610872565b005b34801561027357600080fd5b5061028e60048036038101906102899190612c7a565b6108d2565b005b34801561029c57600080fd5b506102b760048036038101906102b29190612d99565b610958565b005b6102c1610978565b005b3480156102cf57600080fd5b506102ea60048036038101906102e59190612f21565b610a61565b005b3480156102f857600080fd5b50610313600480360381019061030e9190612c7a565b610af7565b6040516103209190612ce8565b60405180910390f35b34801561033557600080fd5b50610350600480360381019061034b9190612f6a565b610ba9565b60405161035d9190612d7e565b60405180910390f35b34801561037257600080fd5b5061037b610c61565b005b34801561038957600080fd5b50610392610ce9565b60405161039f9190612d7e565b60405180910390f35b3480156103b457600080fd5b506103bd610cfa565b6040516103ca9190612ce8565b60405180910390f35b3480156103df57600080fd5b506103fa60048036038101906103f59190612c7a565b610d24565b6040516104079190613055565b60405180910390f35b34801561041c57600080fd5b50610425610e82565b6040516104329190612c22565b60405180910390f35b34801561044757600080fd5b50610450610f14565b60405161045d9190612d7e565b60405180910390f35b34801561047257600080fd5b5061048d6004803603810190610488919061309d565b610f1a565b005b34801561049b57600080fd5b506104b660048036038101906104b1919061317e565b61109b565b005b3480156104c457600080fd5b506104df60048036038101906104da9190612c7a565b6110fd565b6040516104ec9190612c22565b60405180910390f35b34801561050157600080fd5b5061051c60048036038101906105179190613201565b6111a4565b6040516105299190612b6e565b60405180910390f35b34801561053e57600080fd5b5061055960048036038101906105549190612f6a565b611238565b005b60007f80ac58cd000000000000000000000000000000000000000000000000000000007bffffffffffffffffffffffffffffffffffffffffffffffffffffffff1916827bffffffffffffffffffffffffffffffffffffffffffffffffffffffff1916148061062657507f5b5e139f000000000000000000000000000000000000000000000000000000007bffffffffffffffffffffffffffffffffffffffffffffffffffffffff1916827bffffffffffffffffffffffffffffffffffffffffffffffffffffffff1916145b806106365750610635826113dc565b5b9050919050565b60606000805461064c90613270565b80601f016020809104026020016040519081016040528092919081815260200182805461067890613270565b80156106c55780601f1061069a576101008083540402835291602001916106c5565b820191906000526020600020905b8154815290600101906020018083116106a857829003601f168201915b5050505050905090565b60006106da82611446565b610719576040517f08c379a000000000000000000000000000000000000000000000000000000000815260040161071090613314565b60405180910390fd5b6004600083815260200190815260200160002060009054906101000a900473ffffffffffffffffffffffffffffffffffffffff169050919050565b600061075f82610af7565b90508073ffffffffffffffffffffffffffffffffffffffff168373ffffffffffffffffffffffffffffffffffffffff1614156107d0576040517f08c379a00000000000000000000000000000000000000000000000000000000081526004016107c7906133a6565b60405180910390fd5b8073ffffffffffffffffffffffffffffffffffffffff166107ef6114b2565b73ffffffffffffffffffffffffffffffffffffffff16148061081e575061081d816108186114b2565b6111a4565b5b61085d576040517f08c379a000000000000000000000000000000000000000000000000000000000815260040161085490613438565b60405180910390fd5b61086783836114ba565b505050565b60135481565b61088361087d6114b2565b82611573565b6108c2576040517f08c379a00000000000000000000000000000000000000000000000000000000081526004016108b9906134ca565b60405180910390fd5b6108cd838383611651565b505050565b6108da6114b2565b73ffffffffffffffffffffffffffffffffffffffff166108f8610cfa565b73ffffffffffffffffffffffffffffffffffffffff161461094e576040517f08c379a000000000000000000000000000000000000000000000000000000000815260040161094590613536565b60405180910390fd5b8060128190555050565b6109738383836040518060200160405280600081525061109b565b505050565b3373ffffffffffffffffffffffffffffffffffffffff16610997610cfa565b73ffffffffffffffffffffffffffffffffffffffff1614156109c1576109bb6118ad565b50610a5f565b6012543414610a05576040517f08c379a00000000000000000000000000000000000000000000000000000000081526004016109fc906135a2565b60405180910390fd5b610a0d6118ad565b50610a16610cfa565b73ffffffffffffffffffffffffffffffffffffffff166108fc6012549081150290604051600060405180830381858888f19350505050158015610a5d573d6000803e3d6000fd5b505b565b610a696114b2565b73ffffffffffffffffffffffffffffffffffffffff16610a87610cfa565b73ffffffffffffffffffffffffffffffffffffffff1614610add576040517f08c379a0000000000000000000000000000000000000000000000000000000008152600401610ad490613536565b60405180910390fd5b8060119080519060200190610af39291906129ba565b5050565b6000806002600084815260200190815260200160002060009054906101000a900473ffffffffffffffffffffffffffffffffffffffff169050600073ffffffffffffffffffffffffffffffffffffffff168173ffffffffffffffffffffffffffffffffffffffff161415610ba0576040517f08c379a0000000000000000000000000000000000000000000000000000000008152600401610b9790613634565b60405180910390fd5b80915050919050565b60008073ffffffffffffffffffffffffffffffffffffffff168273ffffffffffffffffffffffffffffffffffffffff161415610c1a576040517f08c379a0000000000000000000000000000000000000000000000000000000008152600401610c11906136c6565b60405180910390fd5b600360008373ffffffffffffffffffffffffffffffffffffffff1673ffffffffffffffffffffffffffffffffffffffff168152602001908152602001600020549050919050565b610c696114b2565b73ffffffffffffffffffffffffffffffffffffffff16610c87610cfa565b73ffffffffffffffffffffffffffffffffffffffff1614610cdd576040517f08c379a0000000000000000000000000000000000000000000000000000000008152600401610cd490613536565b60405180910390fd5b610ce76000611a15565b565b6000610cf56014611330565b905090565b6000601060009054906101000a900473ffffffffffffffffffffffffffffffffffffffff16905090565b610d2c612a40565b610d3582611446565b610d74576040517f08c379a0000000000000000000000000000000000000000000000000000000008152600401610d6b90613732565b60405180910390fd5b60156000838152602001908152602001600020604051806101000160405290816000820160009054906101000a900460ff1660ff1660ff1681526020016000820160019054906101000a900460ff1660ff1660ff1681526020016000820160029054906101000a900460ff1660ff1660ff1681526020016000820160039054906101000a900460ff1660ff1660ff1681526020016000820160049054906101000a900460ff1660ff1660ff1681526020016000820160059054906101000a900460ff1660ff1660ff1681526020016000820160069054906101000a900460ff1660ff1660ff1681526020016000820160079054906101000a900460ff1660ff1660ff16815250509050919050565b606060018054610e9190613270565b80601f0160208091040260200160405190810160405280929190818152602001828054610ebd90613270565b8015610f0a5780601f10610edf57610100808354040283529160200191610f0a565b820191906000526020600020905b815481529060010190602001808311610eed57829003601f168201915b5050505050905090565b60125481565b610f226114b2565b73ffffffffffffffffffffffffffffffffffffffff168273ffffffffffffffffffffffffffffffffffffffff161415610f90576040517f08c379a0000000000000000000000000000000000000000000000000000000008152600401610f879061379e565b60405180910390fd5b8060056000610f9d6114b2565b73ffffffffffffffffffffffffffffffffffffffff1673ffffffffffffffffffffffffffffffffffffffff16815260200190815260200160002060008473ffffffffffffffffffffffffffffffffffffffff1673ffffffffffffffffffffffffffffffffffffffff16815260200190815260200160002060006101000a81548160ff0219169083151502179055508173ffffffffffffffffffffffffffffffffffffffff1661104a6114b2565b73ffffffffffffffffffffffffffffffffffffffff167f17307eab39ab6107e8899845ad3d59bd9653f200f220920489ca2b5937696c318360405161108f9190612b6e565b60405180910390a35050565b6110ac6110a66114b2565b83611573565b6110eb576040517f08c379a00000000000000000000000000000000000000000000000000000000081526004016110e2906134ca565b60405180910390fd5b6110f784848484611adb565b50505050565b606061110882611446565b611147576040517f08c379a000000000000000000000000000000000000000000000000000000000815260040161113e90613830565b60405180910390fd5b6000611151611b37565b90506000815111611171576040518060200160405280600081525061119c565b8061117b84611bc9565b60405160200161118c92919061388c565b6040516020818303038152906040525b915050919050565b6000600560008473ffffffffffffffffffffffffffffffffffffffff1673ffffffffffffffffffffffffffffffffffffffff16815260200190815260200160002060008373ffffffffffffffffffffffffffffffffffffffff1673ffffffffffffffffffffffffffffffffffffffff16815260200190815260200160002060009054906101000a900460ff16905092915050565b6112406114b2565b73ffffffffffffffffffffffffffffffffffffffff1661125e610cfa565b73ffffffffffffffffffffffffffffffffffffffff16146112b4576040517f08c379a00000000000000000000000000000000000000000000000000000000081526004016112ab90613536565b60405180910390fd5b600073ffffffffffffffffffffffffffffffffffffffff168173ffffffffffffffffffffffffffffffffffffffff161415611324576040517f08c379a000000000000000000000000000000000000000000000000000000000815260040161131b90613922565b60405180910390fd5b61132d81611a15565b50565b600081600001549050919050565b6001816000016000828254019250508190555050565b600080611362868685611d2a565b905061136e8185611d8b565b915050949350505050565b600080823b905060008111915050919050565b600060ff80168211156113d4576040517f08c379a00000000000000000000000000000000000000000000000000000000081526004016113cb906139b4565b60405180910390fd5b819050919050565b60007f01ffc9a7000000000000000000000000000000000000000000000000000000007bffffffffffffffffffffffffffffffffffffffffffffffffffffffff1916827bffffffffffffffffffffffffffffffffffffffffffffffffffffffff1916149050919050565b60008073ffffffffffffffffffffffffffffffffffffffff166002600084815260200190815260200160002060009054906101000a900473ffffffffffffffffffffffffffffffffffffffff1673ffffffffffffffffffffffffffffffffffffffff1614159050919050565b600033905090565b816004600083815260200190815260200160002060006101000a81548173ffffffffffffffffffffffffffffffffffffffff021916908373ffffffffffffffffffffffffffffffffffffffff160217905550808273ffffffffffffffffffffffffffffffffffffffff1661152d83610af7565b73ffffffffffffffffffffffffffffffffffffffff167f8c5be1e5ebec7d5bd14f71427d1e84f3dd0314c0f7b2291e5b200ac8c7c3b92560405160405180910390a45050565b600061157e82611446565b6115bd576040517f08c379a00000000000000000000000000000000000000000000000000000000081526004016115b490613a46565b60405180910390fd5b60006115c883610af7565b90508073ffffffffffffffffffffffffffffffffffffffff168473ffffffffffffffffffffffffffffffffffffffff16148061163757508373ffffffffffffffffffffffffffffffffffffffff1661161f846106cf565b73ffffffffffffffffffffffffffffffffffffffff16145b80611648575061164781856111a4565b5b91505092915050565b8273ffffffffffffffffffffffffffffffffffffffff1661167182610af7565b73ffffffffffffffffffffffffffffffffffffffff16146116c7576040517f08c379a00000000000000000000000000000000000000000000000000000000081526004016116be90613ad8565b60405180910390fd5b600073ffffffffffffffffffffffffffffffffffffffff168273ffffffffffffffffffffffffffffffffffffffff161415611737576040517f08c379a000000000000000000000000000000000000000000000000000000000815260040161172e90613b6a565b60405180910390fd5b611742838383611e20565b61174d6000826114ba565b6001600360008573ffffffffffffffffffffffffffffffffffffffff1673ffffffffffffffffffffffffffffffffffffffff168152602001908152602001600020600082825461179d9190613bb9565b925050819055506001600360008473ffffffffffffffffffffffffffffffffffffffff1673ffffffffffffffffffffffffffffffffffffffff16815260200190815260200160002060008282546117f49190613bed565b92505081905550816002600083815260200190815260200160002060006101000a81548173ffffffffffffffffffffffffffffffffffffffff021916908373ffffffffffffffffffffffffffffffffffffffff160217905550808273ffffffffffffffffffffffffffffffffffffffff168473ffffffffffffffffffffffffffffffffffffffff167fddf252ad1be2c89b69c2b068fc378daa952ba7f163c4a11628f55a4df523b3ef60405160405180910390a4505050565b60006013546118bc6014611330565b106118c657600080fd5b6118d0601461133e565b60006118dc6014611330565b90506118e6611e25565b6015600083815260200190815260200160002060008201518160000160006101000a81548160ff021916908360ff16021790555060208201518160000160016101000a81548160ff021916908360ff16021790555060408201518160000160026101000a81548160ff021916908360ff16021790555060608201518160000160036101000a81548160ff021916908360ff16021790555060808201518160000160046101000a81548160ff021916908360ff16021790555060a08201518160000160056101000a81548160ff021916908360ff16021790555060c08201518160000160066101000a81548160ff021916908360ff16021790555060e08201518160000160076101000a81548160ff021916908360ff160217905550905050611a0e3382611ec8565b8091505090565b6000601060009054906101000a900473ffffffffffffffffffffffffffffffffffffffff16905081601060006101000a81548173ffffffffffffffffffffffffffffffffffffffff021916908373ffffffffffffffffffffffffffffffffffffffff1602179055508173ffffffffffffffffffffffffffffffffffffffff168173ffffffffffffffffffffffffffffffffffffffff167f8be0079c531659141344cd1fd0a4f28419497f9722a3daafe3b4186f6b6457e060405160405180910390a35050565b611ae6848484611651565b611af284848484611ee6565b611b31576040517f08c379a0000000000000000000000000000000000000000000000000000000008152600401611b2890613cb5565b60405180910390fd5b50505050565b606060118054611b4690613270565b80601f0160208091040260200160405190810160405280929190818152602001828054611b7290613270565b8015611bbf5780601f10611b9457610100808354040283529160200191611bbf565b820191906000526020600020905b815481529060010190602001808311611ba257829003601f168201915b5050505050905090565b60606000821415611c11576040518060400160405280600181526020017f30000000000000000000000000000000000000000000000000000000000000008152509050611d25565b600082905060005b60008214611c43578080611c2c90613cd5565b915050600a82611c3c9190613d4d565b9150611c19565b60008167ffffffffffffffff811115611c5f57611c5e612df6565b5b6040519080825280601f01601f191660200182016040528015611c915781602001600182028036833780820191505090505b5090505b60008514611d1e57600182611caa9190613bb9565b9150600a85611cb99190613d7e565b6030611cc59190613bed565b60f81b818381518110611cdb57611cda613daf565b5b60200101907effffffffffffffffffffffffffffffffffffffffffffffffffffffffffffff1916908160001a905350600a85611d179190613d4d565b9450611c95565b8093505050505b919050565b600060018085611d3a9190613bed565b4443323a8789604051602001611d5596959493929190613e68565b6040516020818303038152906040528051906020012060001c611d789190613d7e565b611d829190613bed565b90509392505050565b6000805b8251811015611dde57828181518110611dab57611daa613daf565b5b6020026020010151841115611dcb57611dc38161138c565b915050611e1a565b8080611dd690613cd5565b915050611d8f565b506040517f08c379a0000000000000000000000000000000000000000000000000000000008152600401611e1190613f24565b60405180910390fd5b92915050565b505050565b611e2d612a40565b611e35612a40565b60005b600115611ec057611e4761206e565b9150611e5282612145565b9050600115156007600083815260200190815260200160002060009054906101000a900460ff16151514611eb15760016007600083815260200190815260200160002060006101000a81548160ff021916908315150217905550611ec0565b611eb9612a40565b9150611e38565b819250505090565b611ee28282604051806020016040528060008152506121a6565b5050565b6000611f078473ffffffffffffffffffffffffffffffffffffffff16611379565b15612061578373ffffffffffffffffffffffffffffffffffffffff1663150b7a02611f306114b2565b8786866040518563ffffffff1660e01b8152600401611f529493929190613f99565b6020604051808303816000875af1925050508015611f8e57506040513d601f19601f82011682018060405250810190611f8b9190613ffa565b60015b612011573d8060008114611fbe576040519150601f19603f3d011682016040523d82523d6000602084013e611fc3565b606091505b50600081511415612009576040517f08c379a000000000000000000000000000000000000000000000000000000000815260040161200090613cb5565b60405180910390fd5b805181602001fd5b63150b7a0260e01b7bffffffffffffffffffffffffffffffffffffffffffffffffffffffff1916817bffffffffffffffffffffffffffffffffffffffffffffffffffffffff191614915050612066565b600190505b949350505050565b612076612a40565b60008060008060008060008061208a612201565b905060018160ff1610156120c1576120a061229a565b809850819950829a50839b50849c50859d50869e50505050505050506120e6565b6120c9612378565b809850819950829a50839b50849c50859d50869e50505050505050505b6040518061010001604052808960ff1681526020018860ff1681526020018760ff1681526020018660ff1681526020018560ff1681526020018460ff1681526020018360ff1681526020018260ff168152509850505050505050505090565b6000816000015182602001518360400151846060015185608001518660a001518760c001518860e0015160405160200161218698979695949392919061405d565b6040516020818303038152906040528051906020012060001c9050919050565b6121b083836123bd565b6121bd6000848484611ee6565b6121fc576040517f08c379a00000000000000000000000000000000000000000000000000000000081526004016121f390613cb5565b60405180910390fd5b505050565b600061220d600661133e565b612295620186a061221e6006611330565b600f80548060200260200160405190810160405280929190818152602001828054801561226a57602002820191906000526020600020905b815481526020019060010190808311612256575b50505050507f7370656300000000000000000000000000000000000000000000000000000000611354565b905090565b6000806000806000806000806122ae61258b565b905060006122ba612624565b905060006122c66126bd565b905060006122d2612756565b905060006122de6127ef565b905060006122ea612888565b905060018260ff1614156123195785858585600086869c509c509c509c509c509c509c5050505050505061236f565b600f8460ff1614156123465785858585600086869c509c509c509c509c509c509c5050505050505061236f565b6000612350612921565b9050868686868487879d509d509d509d509d509d509d50505050505050505b90919293949596565b60008060008060008060008061238c61258b565b90506000612398612624565b9050818160008060008060009850985098509850985098509850505090919293949596565b600073ffffffffffffffffffffffffffffffffffffffff168273ffffffffffffffffffffffffffffffffffffffff16141561242d576040517f08c379a00000000000000000000000000000000000000000000000000000000081526004016124249061413b565b60405180910390fd5b61243681611446565b15612476576040517f08c379a000000000000000000000000000000000000000000000000000000000815260040161246d906141a7565b60405180910390fd5b61248260008383611e20565b6001600360008473ffffffffffffffffffffffffffffffffffffffff1673ffffffffffffffffffffffffffffffffffffffff16815260200190815260200160002060008282546124d29190613bed565b92505081905550816002600083815260200190815260200160002060006101000a81548173ffffffffffffffffffffffffffffffffffffffff021916908373ffffffffffffffffffffffffffffffffffffffff160217905550808273ffffffffffffffffffffffffffffffffffffffff16600073ffffffffffffffffffffffffffffffffffffffff167fddf252ad1be2c89b69c2b068fc378daa952ba7f163c4a11628f55a4df523b3ef60405160405180910390a45050565b6000612597600661133e565b61261f620186a06125a86006611330565b60088054806020026020016040519081016040528092919081815260200182805480156125f457602002820191906000526020600020905b8154815260200190600101908083116125e0575b50505050507f6261636b00000000000000000000000000000000000000000000000000000000611354565b905090565b6000612630600661133e565b6126b8620186a06126416006611330565b600980548060200260200160405190810160405280929190818152602001828054801561268d57602002820191906000526020600020905b815481526020019060010190808311612679575b50505050507f736b696e00000000000000000000000000000000000000000000000000000000611354565b905090565b60006126c9600661133e565b612751620186a06126da6006611330565b600a80548060200260200160405190810160405280929190818152602001828054801561272657602002820191906000526020600020905b815481526020019060010190808311612712575b50505050507f6861740000000000000000000000000000000000000000000000000000000000611354565b905090565b6000612762600661133e565b6127ea620186a06127736006611330565b600b8054806020026020016040519081016040528092919081815260200182805480156127bf57602002820191906000526020600020905b8154815260200190600101908083116127ab575b50505050507f6579650000000000000000000000000000000000000000000000000000000000611354565b905090565b60006127fb600661133e565b612883620186a061280c6006611330565b600d80548060200260200160405190810160405280929190818152602001828054801561285857602002820191906000526020600020905b815481526020019060010190808311612844575b50505050507f636c6f7400000000000000000000000000000000000000000000000000000000611354565b905090565b6000612894600661133e565b61291c620186a06128a56006611330565b600e8054806020026020016040519081016040528092919081815260200182805480156128f157602002820191906000526020600020905b8154815260200190600101908083116128dd575b50505050507f61726d7300000000000000000000000000000000000000000000000000000000611354565b905090565b600061292d600661133e565b6129b5620186a061293e6006611330565b600c80548060200260200160405190810160405280929190818152602001828054801561298a57602002820191906000526020600020905b815481526020019060010190808311612976575b50505050507f6d6f757300000000000000000000000000000000000000000000000000000000611354565b905090565b8280546129c690613270565b90600052602060002090601f0160209004810192826129e85760008555612a2f565b82601f10612a0157805160ff1916838001178555612a2f565b82800160010185558215612a2f579182015b82811115612a2e578251825591602001919060010190612a13565b5b509050612a3c9190612a9d565b5090565b604051806101000160405280600060ff168152602001600060ff168152602001600060ff168152602001600060ff168152602001600060ff168152602001600060ff168152602001600060ff168152602001600060ff1681525090565b5b80821115612ab6576000816000905550600101612a9e565b5090565b6000604051905090565b600080fd5b600080fd5b60007fffffffff0000000000000000000000000000000000000000000000000000000082169050919050565b612b0381612ace565b8114612b0e57600080fd5b50565b600081359050612b2081612afa565b92915050565b600060208284031215612b3c57612b3b612ac4565b5b6000612b4a84828501612b11565b91505092915050565b60008115159050919050565b612b6881612b53565b82525050565b6000602082019050612b836000830184612b5f565b92915050565b600081519050919050565b600082825260208201905092915050565b60005b83811015612bc3578082015181840152602081019050612ba8565b83811115612bd2576000848401525b50505050565b6000601f19601f8301169050919050565b6000612bf482612b89565b612bfe8185612b94565b9350612c0e818560208601612ba5565b612c1781612bd8565b840191505092915050565b60006020820190508181036000830152612c3c8184612be9565b905092915050565b6000819050919050565b612c5781612c44565b8114612c6257600080fd5b50565b600081359050612c7481612c4e565b92915050565b600060208284031215612c9057612c8f612ac4565b5b6000612c9e84828501612c65565b91505092915050565b600073ffffffffffffffffffffffffffffffffffffffff82169050919050565b6000612cd282612ca7565b9050919050565b612ce281612cc7565b82525050565b6000602082019050612cfd6000830184612cd9565b92915050565b612d0c81612cc7565b8114612d1757600080fd5b50565b600081359050612d2981612d03565b92915050565b60008060408385031215612d4657612d45612ac4565b5b6000612d5485828601612d1a565b9250506020612d6585828601612c65565b9150509250929050565b612d7881612c44565b82525050565b6000602082019050612d936000830184612d6f565b92915050565b600080600060608486031215612db257612db1612ac4565b5b6000612dc086828701612d1a565b9350506020612dd186828701612d1a565b9250506040612de286828701612c65565b9150509250925092565b600080fd5b600080fd5b7f4e487b7100000000000000000000000000000000000000000000000000000000600052604160045260246000fd5b612e2e82612bd8565b810181811067ffffffffffffffff82111715612e4d57612e4c612df6565b5b80604052505050565b6000612e60612aba565b9050612e6c8282612e25565b919050565b600067ffffffffffffffff821115612e8c57612e8b612df6565b5b612e9582612bd8565b9050602081019050919050565b82818337600083830152505050565b6000612ec4612ebf84612e71565b612e56565b905082815260208101848484011115612ee057612edf612df1565b5b612eeb848285612ea2565b509392505050565b600082601f830112612f0857612f07612dec565b5b8135612f18848260208601612eb1565b91505092915050565b600060208284031215612f3757612f36612ac4565b5b600082013567ffffffffffffffff811115612f5557612f54612ac9565b5b612f6184828501612ef3565b91505092915050565b600060208284031215612f8057612f7f612ac4565b5b6000612f8e84828501612d1a565b91505092915050565b600060ff82169050919050565b612fad81612f97565b82525050565b61010082016000820151612fca6000850182612fa4565b506020820151612fdd6020850182612fa4565b506040820151612ff06040850182612fa4565b5060608201516130036060850182612fa4565b5060808201516130166080850182612fa4565b5060a082015161302960a0850182612fa4565b5060c082015161303c60c0850182612fa4565b5060e082015161304f60e0850182612fa4565b50505050565b60006101008201905061306b6000830184612fb3565b92915050565b61307a81612b53565b811461308557600080fd5b50565b60008135905061309781613071565b92915050565b600080604083850312156130b4576130b3612ac4565b5b60006130c285828601612d1a565b92505060206130d385828601613088565b9150509250929050565b600067ffffffffffffffff8211156130f8576130f7612df6565b5b61310182612bd8565b9050602081019050919050565b600061312161311c846130dd565b612e56565b90508281526020810184848401111561313d5761313c612df1565b5b613148848285612ea2565b509392505050565b600082601f83011261316557613164612dec565b5b813561317584826020860161310e565b91505092915050565b6000806000806080858703121561319857613197612ac4565b5b60006131a687828801612d1a565b94505060206131b787828801612d1a565b93505060406131c887828801612c65565b925050606085013567ffffffffffffffff8111156131e9576131e8612ac9565b5b6131f587828801613150565b91505092959194509250565b6000806040838503121561321857613217612ac4565b5b600061322685828601612d1a565b925050602061323785828601612d1a565b9150509250929050565b7f4e487b7100000000000000000000000000000000000000000000000000000000600052602260045260246000fd5b6000600282049050600182168061328857607f821691505b6020821081141561329c5761329b613241565b5b50919050565b7f4552433732313a20617070726f76656420717565727920666f72206e6f6e657860008201527f697374656e7420746f6b656e0000000000000000000000000000000000000000602082015250565b60006132fe602c83612b94565b9150613309826132a2565b604082019050919050565b6000602082019050818103600083015261332d816132f1565b9050919050565b7f4552433732313a20617070726f76616c20746f2063757272656e74206f776e6560008201527f7200000000000000000000000000000000000000000000000000000000000000602082015250565b6000613390602183612b94565b915061339b82613334565b604082019050919050565b600060208201905081810360008301526133bf81613383565b9050919050565b7f4552433732313a20617070726f76652063616c6c6572206973206e6f74206f7760008201527f6e6572206e6f7220617070726f76656420666f7220616c6c0000000000000000602082015250565b6000613422603883612b94565b915061342d826133c6565b604082019050919050565b6000602082019050818103600083015261345181613415565b9050919050565b7f4552433732313a207472616e736665722063616c6c6572206973206e6f74206f60008201527f776e6572206e6f7220617070726f766564000000000000000000000000000000602082015250565b60006134b4603183612b94565b91506134bf82613458565b604082019050919050565b600060208201905081810360008301526134e3816134a7565b9050919050565b7f4f776e61626c653a2063616c6c6572206973206e6f7420746865206f776e6572600082015250565b6000613520602083612b94565b915061352b826134ea565b602082019050919050565b6000602082019050818103600083015261354f81613513565b9050919050565b7f436c61696d696e672061204e465420636f737473206574686572000000000000600082015250565b600061358c601a83612b94565b915061359782613556565b602082019050919050565b600060208201905081810360008301526135bb8161357f565b9050919050565b7f4552433732313a206f776e657220717565727920666f72206e6f6e657869737460008201527f656e7420746f6b656e0000000000000000000000000000000000000000000000602082015250565b600061361e602983612b94565b9150613629826135c2565b604082019050919050565b6000602082019050818103600083015261364d81613611565b9050919050565b7f4552433732313a2062616c616e636520717565727920666f7220746865207a6560008201527f726f206164647265737300000000000000000000000000000000000000000000602082015250565b60006136b0602a83612b94565b91506136bb82613654565b604082019050919050565b600060208201905081810360008301526136df816136a3565b9050919050565b7f546f6b656e20646f6573206e6f74206578697374730000000000000000000000600082015250565b600061371c601583612b94565b9150613727826136e6565b602082019050919050565b6000602082019050818103600083015261374b8161370f565b9050919050565b7f4552433732313a20617070726f766520746f2063616c6c657200000000000000600082015250565b6000613788601983612b94565b915061379382613752565b602082019050919050565b600060208201905081810360008301526137b78161377b565b9050919050565b7f4552433732314d657461646174613a2055524920717565727920666f72206e6f60008201527f6e6578697374656e7420746f6b656e0000000000000000000000000000000000602082015250565b600061381a602f83612b94565b9150613825826137be565b604082019050919050565b600060208201905081810360008301526138498161380d565b9050919050565b600081905092915050565b600061386682612b89565b6138708185613850565b9350613880818560208601612ba5565b80840191505092915050565b6000613898828561385b565b91506138a4828461385b565b91508190509392505050565b7f4f776e61626c653a206e6577206f776e657220697320746865207a65726f206160008201527f6464726573730000000000000000000000000000000000000000000000000000602082015250565b600061390c602683612b94565b9150613917826138b0565b604082019050919050565b6000602082019050818103600083015261393b816138ff565b9050919050565b7f53616665436173743a2076616c756520646f65736e27742066697420696e203860008201527f2062697473000000000000000000000000000000000000000000000000000000602082015250565b600061399e602583612b94565b91506139a982613942565b604082019050919050565b600060208201905081810360008301526139cd81613991565b9050919050565b7f4552433732313a206f70657261746f7220717565727920666f72206e6f6e657860008201527f697374656e7420746f6b656e0000000000000000000000000000000000000000602082015250565b6000613a30602c83612b94565b9150613a3b826139d4565b604082019050919050565b60006020820190508181036000830152613a5f81613a23565b9050919050565b7f4552433732313a207472616e73666572206f6620746f6b656e2074686174206960008201527f73206e6f74206f776e0000000000000000000000000000000000000000000000602082015250565b6000613ac2602983612b94565b9150613acd82613a66565b604082019050919050565b60006020820190508181036000830152613af181613ab5565b9050919050565b7f4552433732313a207472616e7366657220746f20746865207a65726f2061646460008201527f7265737300000000000000000000000000000000000000000000000000000000602082015250565b6000613b54602483612b94565b9150613b5f82613af8565b604082019050919050565b60006020820190508181036000830152613b8381613b47565b9050919050565b7f4e487b7100000000000000000000000000000000000000000000000000000000600052601160045260246000fd5b6000613bc482612c44565b9150613bcf83612c44565b925082821015613be257613be1613b8a565b5b828203905092915050565b6000613bf882612c44565b9150613c0383612c44565b9250827fffffffffffffffffffffffffffffffffffffffffffffffffffffffffffffffff03821115613c3857613c37613b8a565b5b828201905092915050565b7f4552433732313a207472616e7366657220746f206e6f6e20455243373231526560008201527f63656976657220696d706c656d656e7465720000000000000000000000000000602082015250565b6000613c9f603283612b94565b9150613caa82613c43565b604082019050919050565b60006020820190508181036000830152613cce81613c92565b9050919050565b6000613ce082612c44565b91507fffffffffffffffffffffffffffffffffffffffffffffffffffffffffffffffff821415613d1357613d12613b8a565b5b600182019050919050565b7f4e487b7100000000000000000000000000000000000000000000000000000000600052601260045260246000fd5b6000613d5882612c44565b9150613d6383612c44565b925082613d7357613d72613d1e565b5b828204905092915050565b6000613d8982612c44565b9150613d9483612c44565b925082613da457613da3613d1e565b5b828206905092915050565b7f4e487b7100000000000000000000000000000000000000000000000000000000600052603260045260246000fd5b6000819050919050565b613df9613df482612c44565b613dde565b82525050565b60008160601b9050919050565b6000613e1782613dff565b9050919050565b6000613e2982613e0c565b9050919050565b613e41613e3c82612cc7565b613e1e565b82525050565b6000819050919050565b613e62613e5d82612ace565b613e47565b82525050565b6000613e748289613de8565b602082019150613e848288613de8565b602082019150613e948287613e30565b601482019150613ea48286613de8565b602082019150613eb48285613e51565b600482019150613ec48284613de8565b602082019150819050979650505050505050565b7f44657461696c48656c7065723a3a7069636b4974656d733a204e6f206974656d600082015250565b6000613f0e602083612b94565b9150613f1982613ed8565b602082019050919050565b60006020820190508181036000830152613f3d81613f01565b9050919050565b600081519050919050565b600082825260208201905092915050565b6000613f6b82613f44565b613f758185613f4f565b9350613f85818560208601612ba5565b613f8e81612bd8565b840191505092915050565b6000608082019050613fae6000830187612cd9565b613fbb6020830186612cd9565b613fc86040830185612d6f565b8181036060830152613fda8184613f60565b905095945050505050565b600081519050613ff481612afa565b92915050565b6000602082840312156140105761400f612ac4565b5b600061401e84828501613fe5565b91505092915050565b60008160f81b9050919050565b600061403f82614027565b9050919050565b61405761405282612f97565b614034565b82525050565b6000614069828b614046565b600182019150614079828a614046565b6001820191506140898289614046565b6001820191506140998288614046565b6001820191506140a98287614046565b6001820191506140b98286614046565b6001820191506140c98285614046565b6001820191506140d98284614046565b6001820191508190509998505050505050505050565b7f4552433732313a206d696e7420746f20746865207a65726f2061646472657373600082015250565b6000614125602083612b94565b9150614130826140ef565b602082019050919050565b6000602082019050818103600083015261415481614118565b9050919050565b7f4552433732313a20746f6b656e20616c7265616479206d696e74656400000000600082015250565b6000614191601c83612b94565b915061419c8261415b565b602082019050919050565b600060208201905081810360008301526141c081614184565b905091905056fea264697066735822122040a19261675bf91c130158253bb86d62fa4b78bc2d37f23c5f292b74ce786e2564736f6c634300080a003368747470733a2f2f63727970746f6469636b732d6170692e6865726f6b756170702e636f6d2f746f6b656e2f",
  "immutableReferences": {},
  "source": "// SPDX-License-Identifier: MIT\n\npragma solidity >=0.8.3 <0.9.0;\n\nimport \"@openzeppelin/contracts/token/ERC721/ERC721.sol\";\nimport \"@openzeppelin/contracts/utils/Counters.sol\";\nimport \"@openzeppelin/contracts/access/Ownable.sol\";\n\nimport \"./UniqueMetadata.sol\";\n\n/// @title The CryptoDicks ERC721 smart contract.\n/// @author juliencrn\ncontract CryptoDicks is ERC721, UniqueMetadata, Ownable {\n    using Counters for Counters.Counter;\n\n    string internal _currentBaseURI =\n        \"https://cryptodicks-api.herokuapp.com/token/\";\n    uint256 public claimFee = 0.001 ether;\n\n    // Supply\n    uint256 public totalSupply = 10_000;\n    Counters.Counter internal _currentSupply;\n\n    // Mapping token ID to Metadata\n    mapping(uint256 => Metadata) idToMetadata;\n\n    constructor() ERC721(\"CryptoDicks\", \"DICK\") {\n        // Mint my own NFT tokens.\n        for (uint256 i = 0; i < 5; i++) {\n            mint();\n        }\n    }\n\n    /// Allow to mint a token\n    function claim() external payable {\n        // No fee for the Artist\n        if (owner() == msg.sender) {\n            mint();\n        } else {\n            require(msg.value == claimFee, \"Claiming a NFT costs ether\");\n\n            mint();\n\n            // Give ether to the contract owner\n            payable(owner()).transfer(claimFee);\n        }\n    }\n\n    /// For a a given token ID, returns its metadata\n    function get(uint256 _tokenId) external view returns (Metadata memory) {\n        require(_exists(_tokenId), \"Token does not exists\");\n        return idToMetadata[_tokenId];\n    }\n\n    /// @return the current supply\n    function currentSupply() external view returns (uint256) {\n        return _currentSupply.current();\n    }\n\n    /// Mint a new NFT\n    /// @return Created token id\n    function mint() internal returns (uint256) {\n        require(_currentSupply.current() < totalSupply);\n\n        // Increment the token supply.\n        _currentSupply.increment();\n        uint256 newTokenId = _currentSupply.current();\n\n        // Generate and save metadata\n        idToMetadata[newTokenId] = _createUniqueMetadata();\n\n        // Finally, mint!\n        _safeMint(msg.sender, newTokenId);\n\n        return newTokenId;\n    }\n\n    /// Return the good baseURI overriding the ERC721 method\n    function _baseURI() internal view virtual override returns (string memory) {\n        return _currentBaseURI;\n    }\n\n    /// Allow owner to set new baseURI\n    function setBaseURI(string memory _baseUri) public onlyOwner {\n        _currentBaseURI = _baseUri;\n    }\n\n    /// Allow owner to set new mint fee price, ether price will change.\n    function setClaimFee(uint256 _newPrice) external onlyOwner {\n        claimFee = _newPrice;\n    }\n}\n",
  "sourcePath": "/Users/juliencaron/www/ntf/ntf-collectible/contracts/CryptoDicks.sol",
  "compiler": {
    "name": "solc",
    "version": "0.8.10+commit.fc410830.Emscripten.clang"
  },
  "schemaVersion": "3.4.3",
  "updatedAt": "2021-12-08T05:44:18.412Z",
  "networkType": "ethereum",
  "devdoc": {
    "author": "juliencrn",
    "kind": "dev",
    "methods": {
      "approve(address,uint256)": {
        "details": "See {IERC721-approve}."
      },
      "balanceOf(address)": {
        "details": "See {IERC721-balanceOf}."
      },
      "currentSupply()": {
        "returns": {
          "_0": "the current supply"
        }
      },
      "getApproved(uint256)": {
        "details": "See {IERC721-getApproved}."
      },
      "isApprovedForAll(address,address)": {
        "details": "See {IERC721-isApprovedForAll}."
      },
      "name()": {
        "details": "See {IERC721Metadata-name}."
      },
      "owner()": {
        "details": "Returns the address of the current owner."
      },
      "ownerOf(uint256)": {
        "details": "See {IERC721-ownerOf}."
      },
      "renounceOwnership()": {
        "details": "Leaves the contract without owner. It will not be possible to call `onlyOwner` functions anymore. Can only be called by the current owner. NOTE: Renouncing ownership will leave the contract without an owner, thereby removing any functionality that is only available to the owner."
      },
      "safeTransferFrom(address,address,uint256)": {
        "details": "See {IERC721-safeTransferFrom}."
      },
      "safeTransferFrom(address,address,uint256,bytes)": {
        "details": "See {IERC721-safeTransferFrom}."
      },
      "setApprovalForAll(address,bool)": {
        "details": "See {IERC721-setApprovalForAll}."
      },
      "supportsInterface(bytes4)": {
        "details": "See {IERC165-supportsInterface}."
      },
      "symbol()": {
        "details": "See {IERC721Metadata-symbol}."
      },
      "tokenURI(uint256)": {
        "details": "See {IERC721Metadata-tokenURI}."
      },
      "transferFrom(address,address,uint256)": {
        "details": "See {IERC721-transferFrom}."
      },
      "transferOwnership(address)": {
        "details": "Transfers ownership of the contract to a new account (`newOwner`). Can only be called by the current owner."
      }
    },
    "title": "The CryptoDicks ERC721 smart contract.",
    "version": 1
  },
  "userdoc": {
    "kind": "user",
    "methods": {
      "claim()": {
        "notice": "Allow to mint a token"
      },
      "get(uint256)": {
        "notice": "For a a given token ID, returns its metadata"
      },
      "setBaseURI(string)": {
        "notice": "Allow owner to set new baseURI"
      },
      "setClaimFee(uint256)": {
        "notice": "Allow owner to set new mint fee price, ether price will change."
      }
    },
    "version": 1
  }
}