{
  "contractName": "CryptoDicks",
  "abi": [
    {
      "inputs": [],
      "stateMutability": "nonpayable",
      "type": "constructor"
    },
    {
      "anonymous": false,
      "inputs": [
        {
          "indexed": true,
          "internalType": "address",
          "name": "owner",
          "type": "address"
        },
        {
          "indexed": true,
          "internalType": "address",
          "name": "approved",
          "type": "address"
        },
        {
          "indexed": true,
          "internalType": "uint256",
          "name": "tokenId",
          "type": "uint256"
        }
      ],
      "name": "Approval",
      "type": "event"
    },
    {
      "anonymous": false,
      "inputs": [
        {
          "indexed": true,
          "internalType": "address",
          "name": "owner",
          "type": "address"
        },
        {
          "indexed": true,
          "internalType": "address",
          "name": "operator",
          "type": "address"
        },
        {
          "indexed": false,
          "internalType": "bool",
          "name": "approved",
          "type": "bool"
        }
      ],
      "name": "ApprovalForAll",
      "type": "event"
    },
    {
      "anonymous": false,
      "inputs": [
        {
          "indexed": true,
          "internalType": "address",
          "name": "previousOwner",
          "type": "address"
        },
        {
          "indexed": true,
          "internalType": "address",
          "name": "newOwner",
          "type": "address"
        }
      ],
      "name": "OwnershipTransferred",
      "type": "event"
    },
    {
      "anonymous": false,
      "inputs": [
        {
          "indexed": true,
          "internalType": "address",
          "name": "from",
          "type": "address"
        },
        {
          "indexed": true,
          "internalType": "address",
          "name": "to",
          "type": "address"
        },
        {
          "indexed": true,
          "internalType": "uint256",
          "name": "tokenId",
          "type": "uint256"
        }
      ],
      "name": "Transfer",
      "type": "event"
    },
    {
      "inputs": [
        {
          "internalType": "address",
          "name": "to",
          "type": "address"
        },
        {
          "internalType": "uint256",
          "name": "tokenId",
          "type": "uint256"
        }
      ],
      "name": "approve",
      "outputs": [],
      "stateMutability": "nonpayable",
      "type": "function"
    },
    {
      "inputs": [
        {
          "internalType": "address",
          "name": "owner",
          "type": "address"
        }
      ],
      "name": "balanceOf",
      "outputs": [
        {
          "internalType": "uint256",
          "name": "",
          "type": "uint256"
        }
      ],
      "stateMutability": "view",
      "type": "function",
      "constant": true
    },
    {
      "inputs": [],
      "name": "claimFee",
      "outputs": [
        {
          "internalType": "uint256",
          "name": "",
          "type": "uint256"
        }
      ],
      "stateMutability": "view",
      "type": "function",
      "constant": true
    },
    {
      "inputs": [
        {
          "internalType": "uint256",
          "name": "tokenId",
          "type": "uint256"
        }
      ],
      "name": "getApproved",
      "outputs": [
        {
          "internalType": "address",
          "name": "",
          "type": "address"
        }
      ],
      "stateMutability": "view",
      "type": "function",
      "constant": true
    },
    {
      "inputs": [
        {
          "internalType": "address",
          "name": "owner",
          "type": "address"
        },
        {
          "internalType": "address",
          "name": "operator",
          "type": "address"
        }
      ],
      "name": "isApprovedForAll",
      "outputs": [
        {
          "internalType": "bool",
          "name": "",
          "type": "bool"
        }
      ],
      "stateMutability": "view",
      "type": "function",
      "constant": true
    },
    {
      "inputs": [],
      "name": "name",
      "outputs": [
        {
          "internalType": "string",
          "name": "",
          "type": "string"
        }
      ],
      "stateMutability": "view",
      "type": "function",
      "constant": true
    },
    {
      "inputs": [],
      "name": "owner",
      "outputs": [
        {
          "internalType": "address",
          "name": "",
          "type": "address"
        }
      ],
      "stateMutability": "view",
      "type": "function",
      "constant": true
    },
    {
      "inputs": [
        {
          "internalType": "uint256",
          "name": "tokenId",
          "type": "uint256"
        }
      ],
      "name": "ownerOf",
      "outputs": [
        {
          "internalType": "address",
          "name": "",
          "type": "address"
        }
      ],
      "stateMutability": "view",
      "type": "function",
      "constant": true
    },
    {
      "inputs": [],
      "name": "renounceOwnership",
      "outputs": [],
      "stateMutability": "nonpayable",
      "type": "function"
    },
    {
      "inputs": [
        {
          "internalType": "address",
          "name": "from",
          "type": "address"
        },
        {
          "internalType": "address",
          "name": "to",
          "type": "address"
        },
        {
          "internalType": "uint256",
          "name": "tokenId",
          "type": "uint256"
        }
      ],
      "name": "safeTransferFrom",
      "outputs": [],
      "stateMutability": "nonpayable",
      "type": "function"
    },
    {
      "inputs": [
        {
          "internalType": "address",
          "name": "from",
          "type": "address"
        },
        {
          "internalType": "address",
          "name": "to",
          "type": "address"
        },
        {
          "internalType": "uint256",
          "name": "tokenId",
          "type": "uint256"
        },
        {
          "internalType": "bytes",
          "name": "_data",
          "type": "bytes"
        }
      ],
      "name": "safeTransferFrom",
      "outputs": [],
      "stateMutability": "nonpayable",
      "type": "function"
    },
    {
      "inputs": [
        {
          "internalType": "address",
          "name": "operator",
          "type": "address"
        },
        {
          "internalType": "bool",
          "name": "approved",
          "type": "bool"
        }
      ],
      "name": "setApprovalForAll",
      "outputs": [],
      "stateMutability": "nonpayable",
      "type": "function"
    },
    {
      "inputs": [
        {
          "internalType": "bytes4",
          "name": "interfaceId",
          "type": "bytes4"
        }
      ],
      "name": "supportsInterface",
      "outputs": [
        {
          "internalType": "bool",
          "name": "",
          "type": "bool"
        }
      ],
      "stateMutability": "view",
      "type": "function",
      "constant": true
    },
    {
      "inputs": [],
      "name": "symbol",
      "outputs": [
        {
          "internalType": "string",
          "name": "",
          "type": "string"
        }
      ],
      "stateMutability": "view",
      "type": "function",
      "constant": true
    },
    {
      "inputs": [
        {
          "internalType": "uint256",
          "name": "tokenId",
          "type": "uint256"
        }
      ],
      "name": "tokenURI",
      "outputs": [
        {
          "internalType": "string",
          "name": "",
          "type": "string"
        }
      ],
      "stateMutability": "view",
      "type": "function",
      "constant": true
    },
    {
      "inputs": [],
      "name": "totalSupply",
      "outputs": [
        {
          "internalType": "uint256",
          "name": "",
          "type": "uint256"
        }
      ],
      "stateMutability": "view",
      "type": "function",
      "constant": true
    },
    {
      "inputs": [
        {
          "internalType": "address",
          "name": "from",
          "type": "address"
        },
        {
          "internalType": "address",
          "name": "to",
          "type": "address"
        },
        {
          "internalType": "uint256",
          "name": "tokenId",
          "type": "uint256"
        }
      ],
      "name": "transferFrom",
      "outputs": [],
      "stateMutability": "nonpayable",
      "type": "function"
    },
    {
      "inputs": [
        {
          "internalType": "address",
          "name": "newOwner",
          "type": "address"
        }
      ],
      "name": "transferOwnership",
      "outputs": [],
      "stateMutability": "nonpayable",
      "type": "function"
    },
    {
      "inputs": [],
      "name": "claim",
      "outputs": [],
      "stateMutability": "payable",
      "type": "function",
      "payable": true
    },
    {
      "inputs": [
        {
          "internalType": "uint256",
          "name": "_tokenId",
          "type": "uint256"
        }
      ],
      "name": "get",
      "outputs": [
        {
          "components": [
            {
              "internalType": "uint8",
              "name": "background",
              "type": "uint8"
            },
            {
              "internalType": "uint8",
              "name": "skin",
              "type": "uint8"
            },
            {
              "internalType": "uint8",
              "name": "hat",
              "type": "uint8"
            },
            {
              "internalType": "uint8",
              "name": "eye",
              "type": "uint8"
            },
            {
              "internalType": "uint8",
              "name": "mouse",
              "type": "uint8"
            },
            {
              "internalType": "uint8",
              "name": "clothe",
              "type": "uint8"
            },
            {
              "internalType": "uint8",
              "name": "arm",
              "type": "uint8"
            },
            {
              "internalType": "uint8",
              "name": "special",
              "type": "uint8"
            }
          ],
          "internalType": "struct UniqueMetadata.Metadata",
          "name": "",
          "type": "tuple"
        }
      ],
      "stateMutability": "view",
      "type": "function",
      "constant": true
    },
    {
      "inputs": [],
      "name": "currentSupply",
      "outputs": [
        {
          "internalType": "uint256",
          "name": "",
          "type": "uint256"
        }
      ],
      "stateMutability": "view",
      "type": "function",
      "constant": true
    },
    {
      "inputs": [
        {
          "internalType": "string",
          "name": "_baseUri",
          "type": "string"
        }
      ],
      "name": "setBaseURI",
      "outputs": [],
      "stateMutability": "nonpayable",
      "type": "function"
    },
    {
      "inputs": [
        {
          "internalType": "uint256",
          "name": "_newPrice",
          "type": "uint256"
        }
      ],
      "name": "setClaimFee",
      "outputs": [],
      "stateMutability": "nonpayable",
      "type": "function"
    }
  ],
  "bytecode": "0x608060405260405180610200016040528062015f9062ffffff1681526020016201388062ffffff1681526020016201117062ffffff16815260200161ea6062ffffff16815260200161c35062ffffff168152602001619c4062ffffff16815260200161753062ffffff1681526020016159d862ffffff168152602001613e8062ffffff168152602001612af862ffffff168152602001611b5862ffffff168152602001610fa062ffffff168152602001610bb862ffffff1681526020016107d062ffffff1681526020016103e862ffffff168152602001600062ffffff168152506008906010620000f2929190620017ed565b50604051806101a0016040528062015f9062ffffff1681526020016201388062ffffff1681526020016201117062ffffff16815260200161ea6062ffffff16815260200161c35062ffffff168152602001619c4062ffffff16815260200161753062ffffff168152602001614e2062ffffff168152602001613a9862ffffff16815260200161271062ffffff16815260200161138862ffffff1681526020016103e862ffffff168152602001600062ffffff16815250600990600d620001ba92919062001846565b506040518061020001604052806201117062ffffff16815260200161fa0062ffffff16815260200161e29062ffffff16815260200161cb2062ffffff16815260200161b3b062ffffff168152602001619c4062ffffff1681526020016184d062ffffff168152602001616d6062ffffff1681526020016155f062ffffff168152602001613e8062ffffff16815260200161271062ffffff16815260200161138862ffffff168152602001610bb862ffffff1681526020016105dc62ffffff1681526020016101f462ffffff168152602001600062ffffff16815250600a906010620002a7929190620017ed565b506040518060e001604052806188b861ffff1681526020016155f061ffff16815260200161271061ffff16815260200161177061ffff168152602001610bb861ffff1681526020016103e861ffff168152602001600061ffff16815250600b906007620003169291906200189f565b506040518060e0016040528061271061ffff16815260200161177061ffff168152602001610dac61ffff1681526020016107d061ffff1681526020016103e861ffff1681526020016101f461ffff168152602001600061ffff16815250600c906007620003859291906200189f565b506040518060600160405280612ee061ffff16815260200161138861ffff168152602001600061ffff16815250600d906003620003c4929190620018f7565b506040518060400160405280611f4061ffff168152602001600061ffff16815250600e906002620003f79291906200194f565b5060405180606001604052806107d061ffff1681526020016103e861ffff168152602001600061ffff16815250600f90600362000436929190620018f7565b506040518060600160405280602c81526020016200651c602c91396011908051906020019062000468929190620019a7565b5066038d7ea4c680006012556127106013553480156200048757600080fd5b506040518060400160405280600b81526020017f43727970746f4469636b730000000000000000000000000000000000000000008152506040518060400160405280600481526020017f4449434b0000000000000000000000000000000000000000000000000000000081525081600090805190602001906200050c929190620019a7565b50806001908051906020019062000525929190620019a7565b505050620005486200053c6200058360201b60201c565b6200058b60201b60201c565b60005b60058110156200057c57620005656200065160201b60201c565b508080620005739062001aed565b9150506200054b565b506200230d565b600033905090565b6000601060009054906101000a900473ffffffffffffffffffffffffffffffffffffffff16905081601060006101000a81548173ffffffffffffffffffffffffffffffffffffffff021916908373ffffffffffffffffffffffffffffffffffffffff1602179055508173ffffffffffffffffffffffffffffffffffffffff168173ffffffffffffffffffffffffffffffffffffffff167f8be0079c531659141344cd1fd0a4f28419497f9722a3daafe3b4186f6b6457e060405160405180910390a35050565b60006013546200066d6014620007f160201b620011c51760201c565b106200067857600080fd5b6200068f6014620007ff60201b620011d31760201c565b6000620006a86014620007f160201b620011c51760201c565b9050620006ba6200081560201b60201c565b6015600083815260200190815260200160002060008201518160000160006101000a81548160ff021916908360ff16021790555060208201518160000160016101000a81548160ff021916908360ff16021790555060408201518160000160026101000a81548160ff021916908360ff16021790555060608201518160000160036101000a81548160ff021916908360ff16021790555060808201518160000160046101000a81548160ff021916908360ff16021790555060a08201518160000160056101000a81548160ff021916908360ff16021790555060c08201518160000160066101000a81548160ff021916908360ff16021790555060e08201518160000160076101000a81548160ff021916908360ff160217905550905050620007ea3382620008d260201b60201c565b8091505090565b600081600001549050919050565b6001816000016000828254019250508190555050565b6200081f62001a38565b6200082962001a38565b60005b600115620008ca5762000844620008f860201b60201c565b91506200085782620009eb60201b60201c565b9050600115156007600083815260200190815260200160002060009054906101000a900460ff16151514620008b85760016007600083815260200190815260200160002060006101000a81548160ff021916908315150217905550620008ca565b620008c262001a38565b91506200082c565b819250505090565b620008f482826040518060200160405280600081525062000a4e60201b60201c565b5050565b6200090262001a38565b6000806000806000806000806200091e62000abc60201b60201c565b905060018160ff1610156200095f576200093d62000b7e60201b60201c565b809850819950829a50839b50849c50859d50869e50505050505050506200098c565b6200096f62000c9860201b60201c565b809850819950829a50839b50849c50859d50869e50505050505050505b6040518061010001604052808960ff1681526020018860ff1681526020018760ff1681526020018660ff1681526020018560ff1681526020018460ff1681526020018360ff1681526020018260ff168152509850505050505050505090565b6000816000015182602001518360400151846060015185608001518660a001518760c001518860e0015160405160200162000a2e98979695949392919062001b84565b6040516020818303038152906040528051906020012060001c9050919050565b62000a60838362000ced60201b60201c565b62000a75600084848462000ed360201b60201c565b62000ab7576040517f08c379a000000000000000000000000000000000000000000000000000000000815260040162000aae9062001cad565b60405180910390fd5b505050565b600062000ad56006620007ff60201b620011d31760201c565b62000b79620186a062000af46006620007f160201b620011c51760201c565b600f80548060200260200160405190810160405280929190818152602001828054801562000b4257602002820191906000526020600020905b81548152602001906001019080831162000b2d575b50505050507f73706563000000000000000000000000000000000000000000000000000000006200107d60201b620011e91760201c565b905090565b60008060008060008060008062000b9a620010b260201b60201c565b9050600062000bae6200117460201b60201c565b9050600062000bc26200123660201b60201c565b9050600062000bd6620012f860201b60201c565b9050600062000bea620013ba60201b60201c565b9050600062000bfe6200147c60201b60201c565b905060018260ff16141562000c2f5785858585600086869c509c509c509c509c509c509c5050505050505062000c8f565b600f8460ff16141562000c5e5785858585600086869c509c509c509c509c509c509c5050505050505062000c8f565b600062000c706200153e60201b60201c565b9050868686868487879d509d509d509d509d509d509d50505050505050505b90919293949596565b60008060008060008060008062000cb4620010b260201b60201c565b9050600062000cc86200117460201b60201c565b9050818160008060008060009850985098509850985098509850505090919293949596565b600073ffffffffffffffffffffffffffffffffffffffff168273ffffffffffffffffffffffffffffffffffffffff16141562000d60576040517f08c379a000000000000000000000000000000000000000000000000000000000815260040162000d579062001d1f565b60405180910390fd5b62000d71816200160060201b60201c565b1562000db4576040517f08c379a000000000000000000000000000000000000000000000000000000000815260040162000dab9062001d91565b60405180910390fd5b62000dc8600083836200166c60201b60201c565b6001600360008473ffffffffffffffffffffffffffffffffffffffff1673ffffffffffffffffffffffffffffffffffffffff168152602001908152602001600020600082825462000e1a919062001db3565b92505081905550816002600083815260200190815260200160002060006101000a81548173ffffffffffffffffffffffffffffffffffffffff021916908373ffffffffffffffffffffffffffffffffffffffff160217905550808273ffffffffffffffffffffffffffffffffffffffff16600073ffffffffffffffffffffffffffffffffffffffff167fddf252ad1be2c89b69c2b068fc378daa952ba7f163c4a11628f55a4df523b3ef60405160405180910390a45050565b600062000f018473ffffffffffffffffffffffffffffffffffffffff166200167160201b6200120e1760201c565b1562001070578373ffffffffffffffffffffffffffffffffffffffff1663150b7a0262000f336200058360201b60201c565b8786866040518563ffffffff1660e01b815260040162000f57949392919062001f0a565b6020604051808303816000875af192505050801562000f9657506040513d601f19601f8201168201806040525081019062000f93919062001fc0565b60015b6200101f573d806000811462000fc9576040519150601f19603f3d011682016040523d82523d6000602084013e62000fce565b606091505b5060008151141562001017576040517f08c379a00000000000000000000000000000000000000000000000000000000081526004016200100e9062001cad565b60405180910390fd5b805181602001fd5b63150b7a0260e01b7bffffffffffffffffffffffffffffffffffffffffffffffffffffffff1916817bffffffffffffffffffffffffffffffffffffffffffffffffffffffff19161491505062001075565b600190505b949350505050565b600080620010938686856200168460201b60201c565b9050620010a78185620016ed60201b60201c565b915050949350505050565b6000620010cb6006620007ff60201b620011d31760201c565b6200116f620186a0620010ea6006620007f160201b620011c51760201c565b60088054806020026020016040519081016040528092919081815260200182805480156200113857602002820191906000526020600020905b81548152602001906001019080831162001123575b50505050507f6261636b000000000000000000000000000000000000000000000000000000006200107d60201b620011e91760201c565b905090565b60006200118d6006620007ff60201b620011d31760201c565b62001231620186a0620011ac6006620007f160201b620011c51760201c565b6009805480602002602001604051908101604052809291908181526020018280548015620011fa57602002820191906000526020600020905b815481526020019060010190808311620011e5575b50505050507f736b696e000000000000000000000000000000000000000000000000000000006200107d60201b620011e91760201c565b905090565b60006200124f6006620007ff60201b620011d31760201c565b620012f3620186a06200126e6006620007f160201b620011c51760201c565b600a805480602002602001604051908101604052809291908181526020018280548015620012bc57602002820191906000526020600020905b815481526020019060010190808311620012a7575b50505050507f68617400000000000000000000000000000000000000000000000000000000006200107d60201b620011e91760201c565b905090565b6000620013116006620007ff60201b620011d31760201c565b620013b5620186a0620013306006620007f160201b620011c51760201c565b600b8054806020026020016040519081016040528092919081815260200182805480156200137e57602002820191906000526020600020905b81548152602001906001019080831162001369575b50505050507f65796500000000000000000000000000000000000000000000000000000000006200107d60201b620011e91760201c565b905090565b6000620013d36006620007ff60201b620011d31760201c565b62001477620186a0620013f26006620007f160201b620011c51760201c565b600d8054806020026020016040519081016040528092919081815260200182805480156200144057602002820191906000526020600020905b8154815260200190600101908083116200142b575b50505050507f636c6f74000000000000000000000000000000000000000000000000000000006200107d60201b620011e91760201c565b905090565b6000620014956006620007ff60201b620011d31760201c565b62001539620186a0620014b46006620007f160201b620011c51760201c565b600e8054806020026020016040519081016040528092919081815260200182805480156200150257602002820191906000526020600020905b815481526020019060010190808311620014ed575b50505050507f61726d73000000000000000000000000000000000000000000000000000000006200107d60201b620011e91760201c565b905090565b6000620015576006620007ff60201b620011d31760201c565b620015fb620186a0620015766006620007f160201b620011c51760201c565b600c805480602002602001604051908101604052809291908181526020018280548015620015c457602002820191906000526020600020905b815481526020019060010190808311620015af575b50505050507f6d6f7573000000000000000000000000000000000000000000000000000000006200107d60201b620011e91760201c565b905090565b60008073ffffffffffffffffffffffffffffffffffffffff166002600084815260200190815260200160002060009054906101000a900473ffffffffffffffffffffffffffffffffffffffff1673ffffffffffffffffffffffffffffffffffffffff1614159050919050565b505050565b600080823b905060008111915050919050565b60006001808562001696919062001db3565b4443323a8789604051602001620016b3969594939291906200208c565b6040516020818303038152906040528051906020012060001c620016d8919062002137565b620016e4919062001db3565b90509392505050565b6000805b825181101562001756578281815181106200171157620017106200216f565b5b6020026020010151841115620017405762001737816200179a60201b620012211760201c565b91505062001794565b80806200174d9062001aed565b915050620016f1565b506040517f08c379a00000000000000000000000000000000000000000000000000000000081526004016200178b90620021ee565b60405180910390fd5b92915050565b600060ff8016821115620017e5576040517f08c379a0000000000000000000000000000000000000000000000000000000008152600401620017dc9062002286565b60405180910390fd5b819050919050565b82805482825590600052602060002090810192821562001833579160200282015b8281111562001832578251829062ffffff169055916020019190600101906200180e565b5b50905062001842919062001a95565b5090565b8280548282559060005260206000209081019282156200188c579160200282015b828111156200188b578251829062ffffff1690559160200191906001019062001867565b5b5090506200189b919062001a95565b5090565b828054828255906000526020600020908101928215620018e4579160200282015b82811115620018e3578251829061ffff16905591602001919060010190620018c0565b5b509050620018f3919062001a95565b5090565b8280548282559060005260206000209081019282156200193c579160200282015b828111156200193b578251829061ffff1690559160200191906001019062001918565b5b5090506200194b919062001a95565b5090565b82805482825590600052602060002090810192821562001994579160200282015b8281111562001993578251829061ffff1690559160200191906001019062001970565b5b509050620019a3919062001a95565b5090565b828054620019b590620022d7565b90600052602060002090601f016020900481019282620019d9576000855562001a25565b82601f10620019f457805160ff191683800117855562001a25565b8280016001018555821562001a25579182015b8281111562001a2457825182559160200191906001019062001a07565b5b50905062001a34919062001a95565b5090565b604051806101000160405280600060ff168152602001600060ff168152602001600060ff168152602001600060ff168152602001600060ff168152602001600060ff168152602001600060ff168152602001600060ff1681525090565b5b8082111562001ab057600081600090555060010162001a96565b5090565b7f4e487b7100000000000000000000000000000000000000000000000000000000600052601160045260246000fd5b6000819050919050565b600062001afa8262001ae3565b91507fffffffffffffffffffffffffffffffffffffffffffffffffffffffffffffffff82141562001b305762001b2f62001ab4565b5b600182019050919050565b600060ff82169050919050565b60008160f81b9050919050565b600062001b628262001b48565b9050919050565b62001b7e62001b788262001b3b565b62001b55565b82525050565b600062001b92828b62001b69565b60018201915062001ba4828a62001b69565b60018201915062001bb6828962001b69565b60018201915062001bc8828862001b69565b60018201915062001bda828762001b69565b60018201915062001bec828662001b69565b60018201915062001bfe828562001b69565b60018201915062001c10828462001b69565b6001820191508190509998505050505050505050565b600082825260208201905092915050565b7f4552433732313a207472616e7366657220746f206e6f6e20455243373231526560008201527f63656976657220696d706c656d656e7465720000000000000000000000000000602082015250565b600062001c9560328362001c26565b915062001ca28262001c37565b604082019050919050565b6000602082019050818103600083015262001cc88162001c86565b9050919050565b7f4552433732313a206d696e7420746f20746865207a65726f2061646472657373600082015250565b600062001d0760208362001c26565b915062001d148262001ccf565b602082019050919050565b6000602082019050818103600083015262001d3a8162001cf8565b9050919050565b7f4552433732313a20746f6b656e20616c7265616479206d696e74656400000000600082015250565b600062001d79601c8362001c26565b915062001d868262001d41565b602082019050919050565b6000602082019050818103600083015262001dac8162001d6a565b9050919050565b600062001dc08262001ae3565b915062001dcd8362001ae3565b9250827fffffffffffffffffffffffffffffffffffffffffffffffffffffffffffffffff0382111562001e055762001e0462001ab4565b5b828201905092915050565b600073ffffffffffffffffffffffffffffffffffffffff82169050919050565b600062001e3d8262001e10565b9050919050565b62001e4f8162001e30565b82525050565b62001e608162001ae3565b82525050565b600081519050919050565b600082825260208201905092915050565b60005b8381101562001ea257808201518184015260208101905062001e85565b8381111562001eb2576000848401525b50505050565b6000601f19601f8301169050919050565b600062001ed68262001e66565b62001ee2818562001e71565b935062001ef481856020860162001e82565b62001eff8162001eb8565b840191505092915050565b600060808201905062001f21600083018762001e44565b62001f30602083018662001e44565b62001f3f604083018562001e55565b818103606083015262001f53818462001ec9565b905095945050505050565b600080fd5b60007fffffffff0000000000000000000000000000000000000000000000000000000082169050919050565b62001f9a8162001f63565b811462001fa657600080fd5b50565b60008151905062001fba8162001f8f565b92915050565b60006020828403121562001fd95762001fd862001f5e565b5b600062001fe98482850162001fa9565b91505092915050565b6000819050919050565b620020116200200b8262001ae3565b62001ff2565b82525050565b60008160601b9050919050565b6000620020318262002017565b9050919050565b6000620020458262002024565b9050919050565b620020616200205b8262001e30565b62002038565b82525050565b6000819050919050565b62002086620020808262001f63565b62002067565b82525050565b60006200209a828962001ffc565b602082019150620020ac828862001ffc565b602082019150620020be82876200204c565b601482019150620020d0828662001ffc565b602082019150620020e2828562002071565b600482019150620020f4828462001ffc565b602082019150819050979650505050505050565b7f4e487b7100000000000000000000000000000000000000000000000000000000600052601260045260246000fd5b6000620021448262001ae3565b9150620021518362001ae3565b92508262002164576200216362002108565b5b828206905092915050565b7f4e487b7100000000000000000000000000000000000000000000000000000000600052603260045260246000fd5b7f44657461696c48656c7065723a3a7069636b4974656d733a204e6f206974656d600082015250565b6000620021d660208362001c26565b9150620021e3826200219e565b602082019050919050565b600060208201905081810360008301526200220981620021c7565b9050919050565b7f53616665436173743a2076616c756520646f65736e27742066697420696e203860008201527f2062697473000000000000000000000000000000000000000000000000000000602082015250565b60006200226e60258362001c26565b91506200227b8262002210565b604082019050919050565b60006020820190508181036000830152620022a1816200225f565b9050919050565b7f4e487b7100000000000000000000000000000000000000000000000000000000600052602260045260246000fd5b60006002820490506001821680620022f057607f821691505b60208210811415620023075762002306620022a8565b5b50919050565b6141ff806200231d6000396000f3fe6080604052600436106101405760003560e01c806370a08231116100b657806399d32fc41161006f57806399d32fc41461043b578063a22cb46514610466578063b88d4fde1461048f578063c87b56dd146104b8578063e985e9c5146104f5578063f2fde38b1461053257610140565b806370a0823114610329578063715018a614610366578063771282f61461037d5780638da5cb5b146103a85780639507d39a146103d357806395d89b411461041057610140565b806323b872dd1161010857806323b872dd1461023e5780632e75ab501461026757806342842e0e146102905780634e71d92d146102b957806355f804b3146102c35780636352211e146102ec57610140565b806301ffc9a71461014557806306fdde0314610182578063081812fc146101ad578063095ea7b3146101ea57806318160ddd14610213575b600080fd5b34801561015157600080fd5b5061016c60048036038101906101679190612b28565b61055b565b6040516101799190612b70565b60405180910390f35b34801561018e57600080fd5b5061019761063d565b6040516101a49190612c24565b60405180910390f35b3480156101b957600080fd5b506101d460048036038101906101cf9190612c7c565b6106cf565b6040516101e19190612cea565b60405180910390f35b3480156101f657600080fd5b50610211600480360381019061020c9190612d31565b610754565b005b34801561021f57600080fd5b5061022861086c565b6040516102359190612d80565b60405180910390f35b34801561024a57600080fd5b5061026560048036038101906102609190612d9b565b610872565b005b34801561027357600080fd5b5061028e60048036038101906102899190612c7c565b6108d2565b005b34801561029c57600080fd5b506102b760048036038101906102b29190612d9b565b610958565b005b6102c1610978565b005b3480156102cf57600080fd5b506102ea60048036038101906102e59190612f23565b610a61565b005b3480156102f857600080fd5b50610313600480360381019061030e9190612c7c565b610af7565b6040516103209190612cea565b60405180910390f35b34801561033557600080fd5b50610350600480360381019061034b9190612f6c565b610ba9565b60405161035d9190612d80565b60405180910390f35b34801561037257600080fd5b5061037b610c61565b005b34801561038957600080fd5b50610392610ce9565b60405161039f9190612d80565b60405180910390f35b3480156103b457600080fd5b506103bd610cfa565b6040516103ca9190612cea565b60405180910390f35b3480156103df57600080fd5b506103fa60048036038101906103f59190612c7c565b610d24565b6040516104079190613057565b60405180910390f35b34801561041c57600080fd5b50610425610e82565b6040516104329190612c24565b60405180910390f35b34801561044757600080fd5b50610450610f14565b60405161045d9190612d80565b60405180910390f35b34801561047257600080fd5b5061048d6004803603810190610488919061309f565b610f1a565b005b34801561049b57600080fd5b506104b660048036038101906104b19190613180565b610f30565b005b3480156104c457600080fd5b506104df60048036038101906104da9190612c7c565b610f92565b6040516104ec9190612c24565b60405180910390f35b34801561050157600080fd5b5061051c60048036038101906105179190613203565b611039565b6040516105299190612b70565b60405180910390f35b34801561053e57600080fd5b5061055960048036038101906105549190612f6c565b6110cd565b005b60007f80ac58cd000000000000000000000000000000000000000000000000000000007bffffffffffffffffffffffffffffffffffffffffffffffffffffffff1916827bffffffffffffffffffffffffffffffffffffffffffffffffffffffff1916148061062657507f5b5e139f000000000000000000000000000000000000000000000000000000007bffffffffffffffffffffffffffffffffffffffffffffffffffffffff1916827bffffffffffffffffffffffffffffffffffffffffffffffffffffffff1916145b80610636575061063582611271565b5b9050919050565b60606000805461064c90613272565b80601f016020809104026020016040519081016040528092919081815260200182805461067890613272565b80156106c55780601f1061069a576101008083540402835291602001916106c5565b820191906000526020600020905b8154815290600101906020018083116106a857829003601f168201915b5050505050905090565b60006106da826112db565b610719576040517f08c379a000000000000000000000000000000000000000000000000000000000815260040161071090613316565b60405180910390fd5b6004600083815260200190815260200160002060009054906101000a900473ffffffffffffffffffffffffffffffffffffffff169050919050565b600061075f82610af7565b90508073ffffffffffffffffffffffffffffffffffffffff168373ffffffffffffffffffffffffffffffffffffffff1614156107d0576040517f08c379a00000000000000000000000000000000000000000000000000000000081526004016107c7906133a8565b60405180910390fd5b8073ffffffffffffffffffffffffffffffffffffffff166107ef611347565b73ffffffffffffffffffffffffffffffffffffffff16148061081e575061081d81610818611347565b611039565b5b61085d576040517f08c379a00000000000000000000000000000000000000000000000000000000081526004016108549061343a565b60405180910390fd5b610867838361134f565b505050565b60135481565b61088361087d611347565b82611408565b6108c2576040517f08c379a00000000000000000000000000000000000000000000000000000000081526004016108b9906134cc565b60405180910390fd5b6108cd8383836114e6565b505050565b6108da611347565b73ffffffffffffffffffffffffffffffffffffffff166108f8610cfa565b73ffffffffffffffffffffffffffffffffffffffff161461094e576040517f08c379a000000000000000000000000000000000000000000000000000000000815260040161094590613538565b60405180910390fd5b8060128190555050565b61097383838360405180602001604052806000815250610f30565b505050565b3373ffffffffffffffffffffffffffffffffffffffff16610997610cfa565b73ffffffffffffffffffffffffffffffffffffffff1614156109c1576109bb611742565b50610a5f565b6012543414610a05576040517f08c379a00000000000000000000000000000000000000000000000000000000081526004016109fc906135a4565b60405180910390fd5b610a0d611742565b50610a16610cfa565b73ffffffffffffffffffffffffffffffffffffffff166108fc6012549081150290604051600060405180830381858888f19350505050158015610a5d573d6000803e3d6000fd5b505b565b610a69611347565b73ffffffffffffffffffffffffffffffffffffffff16610a87610cfa565b73ffffffffffffffffffffffffffffffffffffffff1614610add576040517f08c379a0000000000000000000000000000000000000000000000000000000008152600401610ad490613538565b60405180910390fd5b8060119080519060200190610af39291906129bc565b5050565b6000806002600084815260200190815260200160002060009054906101000a900473ffffffffffffffffffffffffffffffffffffffff169050600073ffffffffffffffffffffffffffffffffffffffff168173ffffffffffffffffffffffffffffffffffffffff161415610ba0576040517f08c379a0000000000000000000000000000000000000000000000000000000008152600401610b9790613636565b60405180910390fd5b80915050919050565b60008073ffffffffffffffffffffffffffffffffffffffff168273ffffffffffffffffffffffffffffffffffffffff161415610c1a576040517f08c379a0000000000000000000000000000000000000000000000000000000008152600401610c11906136c8565b60405180910390fd5b600360008373ffffffffffffffffffffffffffffffffffffffff1673ffffffffffffffffffffffffffffffffffffffff168152602001908152602001600020549050919050565b610c69611347565b73ffffffffffffffffffffffffffffffffffffffff16610c87610cfa565b73ffffffffffffffffffffffffffffffffffffffff1614610cdd576040517f08c379a0000000000000000000000000000000000000000000000000000000008152600401610cd490613538565b60405180910390fd5b610ce760006118aa565b565b6000610cf560146111c5565b905090565b6000601060009054906101000a900473ffffffffffffffffffffffffffffffffffffffff16905090565b610d2c612a42565b610d35826112db565b610d74576040517f08c379a0000000000000000000000000000000000000000000000000000000008152600401610d6b90613734565b60405180910390fd5b60156000838152602001908152602001600020604051806101000160405290816000820160009054906101000a900460ff1660ff1660ff1681526020016000820160019054906101000a900460ff1660ff1660ff1681526020016000820160029054906101000a900460ff1660ff1660ff1681526020016000820160039054906101000a900460ff1660ff1660ff1681526020016000820160049054906101000a900460ff1660ff1660ff1681526020016000820160059054906101000a900460ff1660ff1660ff1681526020016000820160069054906101000a900460ff1660ff1660ff1681526020016000820160079054906101000a900460ff1660ff1660ff16815250509050919050565b606060018054610e9190613272565b80601f0160208091040260200160405190810160405280929190818152602001828054610ebd90613272565b8015610f0a5780601f10610edf57610100808354040283529160200191610f0a565b820191906000526020600020905b815481529060010190602001808311610eed57829003601f168201915b5050505050905090565b60125481565b610f2c610f25611347565b8383611970565b5050565b610f41610f3b611347565b83611408565b610f80576040517f08c379a0000000000000000000000000000000000000000000000000000000008152600401610f77906134cc565b60405180910390fd5b610f8c84848484611add565b50505050565b6060610f9d826112db565b610fdc576040517f08c379a0000000000000000000000000000000000000000000000000000000008152600401610fd3906137c6565b60405180910390fd5b6000610fe6611b39565b905060008151116110065760405180602001604052806000815250611031565b8061101084611bcb565b604051602001611021929190613822565b6040516020818303038152906040525b915050919050565b6000600560008473ffffffffffffffffffffffffffffffffffffffff1673ffffffffffffffffffffffffffffffffffffffff16815260200190815260200160002060008373ffffffffffffffffffffffffffffffffffffffff1673ffffffffffffffffffffffffffffffffffffffff16815260200190815260200160002060009054906101000a900460ff16905092915050565b6110d5611347565b73ffffffffffffffffffffffffffffffffffffffff166110f3610cfa565b73ffffffffffffffffffffffffffffffffffffffff1614611149576040517f08c379a000000000000000000000000000000000000000000000000000000000815260040161114090613538565b60405180910390fd5b600073ffffffffffffffffffffffffffffffffffffffff168173ffffffffffffffffffffffffffffffffffffffff1614156111b9576040517f08c379a00000000000000000000000000000000000000000000000000000000081526004016111b0906138b8565b60405180910390fd5b6111c2816118aa565b50565b600081600001549050919050565b6001816000016000828254019250508190555050565b6000806111f7868685611d2c565b90506112038185611d8d565b915050949350505050565b600080823b905060008111915050919050565b600060ff8016821115611269576040517f08c379a00000000000000000000000000000000000000000000000000000000081526004016112609061394a565b60405180910390fd5b819050919050565b60007f01ffc9a7000000000000000000000000000000000000000000000000000000007bffffffffffffffffffffffffffffffffffffffffffffffffffffffff1916827bffffffffffffffffffffffffffffffffffffffffffffffffffffffff1916149050919050565b60008073ffffffffffffffffffffffffffffffffffffffff166002600084815260200190815260200160002060009054906101000a900473ffffffffffffffffffffffffffffffffffffffff1673ffffffffffffffffffffffffffffffffffffffff1614159050919050565b600033905090565b816004600083815260200190815260200160002060006101000a81548173ffffffffffffffffffffffffffffffffffffffff021916908373ffffffffffffffffffffffffffffffffffffffff160217905550808273ffffffffffffffffffffffffffffffffffffffff166113c283610af7565b73ffffffffffffffffffffffffffffffffffffffff167f8c5be1e5ebec7d5bd14f71427d1e84f3dd0314c0f7b2291e5b200ac8c7c3b92560405160405180910390a45050565b6000611413826112db565b611452576040517f08c379a0000000000000000000000000000000000000000000000000000000008152600401611449906139dc565b60405180910390fd5b600061145d83610af7565b90508073ffffffffffffffffffffffffffffffffffffffff168473ffffffffffffffffffffffffffffffffffffffff1614806114cc57508373ffffffffffffffffffffffffffffffffffffffff166114b4846106cf565b73ffffffffffffffffffffffffffffffffffffffff16145b806114dd57506114dc8185611039565b5b91505092915050565b8273ffffffffffffffffffffffffffffffffffffffff1661150682610af7565b73ffffffffffffffffffffffffffffffffffffffff161461155c576040517f08c379a000000000000000000000000000000000000000000000000000000000815260040161155390613a6e565b60405180910390fd5b600073ffffffffffffffffffffffffffffffffffffffff168273ffffffffffffffffffffffffffffffffffffffff1614156115cc576040517f08c379a00000000000000000000000000000000000000000000000000000000081526004016115c390613b00565b60405180910390fd5b6115d7838383611e22565b6115e260008261134f565b6001600360008573ffffffffffffffffffffffffffffffffffffffff1673ffffffffffffffffffffffffffffffffffffffff16815260200190815260200160002060008282546116329190613b4f565b925050819055506001600360008473ffffffffffffffffffffffffffffffffffffffff1673ffffffffffffffffffffffffffffffffffffffff16815260200190815260200160002060008282546116899190613b83565b92505081905550816002600083815260200190815260200160002060006101000a81548173ffffffffffffffffffffffffffffffffffffffff021916908373ffffffffffffffffffffffffffffffffffffffff160217905550808273ffffffffffffffffffffffffffffffffffffffff168473ffffffffffffffffffffffffffffffffffffffff167fddf252ad1be2c89b69c2b068fc378daa952ba7f163c4a11628f55a4df523b3ef60405160405180910390a4505050565b600060135461175160146111c5565b1061175b57600080fd5b61176560146111d3565b600061177160146111c5565b905061177b611e27565b6015600083815260200190815260200160002060008201518160000160006101000a81548160ff021916908360ff16021790555060208201518160000160016101000a81548160ff021916908360ff16021790555060408201518160000160026101000a81548160ff021916908360ff16021790555060608201518160000160036101000a81548160ff021916908360ff16021790555060808201518160000160046101000a81548160ff021916908360ff16021790555060a08201518160000160056101000a81548160ff021916908360ff16021790555060c08201518160000160066101000a81548160ff021916908360ff16021790555060e08201518160000160076101000a81548160ff021916908360ff1602179055509050506118a33382611eca565b8091505090565b6000601060009054906101000a900473ffffffffffffffffffffffffffffffffffffffff16905081601060006101000a81548173ffffffffffffffffffffffffffffffffffffffff021916908373ffffffffffffffffffffffffffffffffffffffff1602179055508173ffffffffffffffffffffffffffffffffffffffff168173ffffffffffffffffffffffffffffffffffffffff167f8be0079c531659141344cd1fd0a4f28419497f9722a3daafe3b4186f6b6457e060405160405180910390a35050565b8173ffffffffffffffffffffffffffffffffffffffff168373ffffffffffffffffffffffffffffffffffffffff1614156119df576040517f08c379a00000000000000000000000000000000000000000000000000000000081526004016119d690613c25565b60405180910390fd5b80600560008573ffffffffffffffffffffffffffffffffffffffff1673ffffffffffffffffffffffffffffffffffffffff16815260200190815260200160002060008473ffffffffffffffffffffffffffffffffffffffff1673ffffffffffffffffffffffffffffffffffffffff16815260200190815260200160002060006101000a81548160ff0219169083151502179055508173ffffffffffffffffffffffffffffffffffffffff168373ffffffffffffffffffffffffffffffffffffffff167f17307eab39ab6107e8899845ad3d59bd9653f200f220920489ca2b5937696c3183604051611ad09190612b70565b60405180910390a3505050565b611ae88484846114e6565b611af484848484611ee8565b611b33576040517f08c379a0000000000000000000000000000000000000000000000000000000008152600401611b2a90613cb7565b60405180910390fd5b50505050565b606060118054611b4890613272565b80601f0160208091040260200160405190810160405280929190818152602001828054611b7490613272565b8015611bc15780601f10611b9657610100808354040283529160200191611bc1565b820191906000526020600020905b815481529060010190602001808311611ba457829003601f168201915b5050505050905090565b60606000821415611c13576040518060400160405280600181526020017f30000000000000000000000000000000000000000000000000000000000000008152509050611d27565b600082905060005b60008214611c45578080611c2e90613cd7565b915050600a82611c3e9190613d4f565b9150611c1b565b60008167ffffffffffffffff811115611c6157611c60612df8565b5b6040519080825280601f01601f191660200182016040528015611c935781602001600182028036833780820191505090505b5090505b60008514611d2057600182611cac9190613b4f565b9150600a85611cbb9190613d80565b6030611cc79190613b83565b60f81b818381518110611cdd57611cdc613db1565b5b60200101907effffffffffffffffffffffffffffffffffffffffffffffffffffffffffffff1916908160001a905350600a85611d199190613d4f565b9450611c97565b8093505050505b919050565b600060018085611d3c9190613b83565b4443323a8789604051602001611d5796959493929190613e6a565b6040516020818303038152906040528051906020012060001c611d7a9190613d80565b611d849190613b83565b90509392505050565b6000805b8251811015611de057828181518110611dad57611dac613db1565b5b6020026020010151841115611dcd57611dc581611221565b915050611e1c565b8080611dd890613cd7565b915050611d91565b506040517f08c379a0000000000000000000000000000000000000000000000000000000008152600401611e1390613f26565b60405180910390fd5b92915050565b505050565b611e2f612a42565b611e37612a42565b60005b600115611ec257611e49612070565b9150611e5482612147565b9050600115156007600083815260200190815260200160002060009054906101000a900460ff16151514611eb35760016007600083815260200190815260200160002060006101000a81548160ff021916908315150217905550611ec2565b611ebb612a42565b9150611e3a565b819250505090565b611ee48282604051806020016040528060008152506121a8565b5050565b6000611f098473ffffffffffffffffffffffffffffffffffffffff1661120e565b15612063578373ffffffffffffffffffffffffffffffffffffffff1663150b7a02611f32611347565b8786866040518563ffffffff1660e01b8152600401611f549493929190613f9b565b6020604051808303816000875af1925050508015611f9057506040513d601f19601f82011682018060405250810190611f8d9190613ffc565b60015b612013573d8060008114611fc0576040519150601f19603f3d011682016040523d82523d6000602084013e611fc5565b606091505b5060008151141561200b576040517f08c379a000000000000000000000000000000000000000000000000000000000815260040161200290613cb7565b60405180910390fd5b805181602001fd5b63150b7a0260e01b7bffffffffffffffffffffffffffffffffffffffffffffffffffffffff1916817bffffffffffffffffffffffffffffffffffffffffffffffffffffffff191614915050612068565b600190505b949350505050565b612078612a42565b60008060008060008060008061208c612203565b905060018160ff1610156120c3576120a261229c565b809850819950829a50839b50849c50859d50869e50505050505050506120e8565b6120cb61237a565b809850819950829a50839b50849c50859d50869e50505050505050505b6040518061010001604052808960ff1681526020018860ff1681526020018760ff1681526020018660ff1681526020018560ff1681526020018460ff1681526020018360ff1681526020018260ff168152509850505050505050505090565b6000816000015182602001518360400151846060015185608001518660a001518760c001518860e0015160405160200161218898979695949392919061405f565b6040516020818303038152906040528051906020012060001c9050919050565b6121b283836123bf565b6121bf6000848484611ee8565b6121fe576040517f08c379a00000000000000000000000000000000000000000000000000000000081526004016121f590613cb7565b60405180910390fd5b505050565b600061220f60066111d3565b612297620186a061222060066111c5565b600f80548060200260200160405190810160405280929190818152602001828054801561226c57602002820191906000526020600020905b815481526020019060010190808311612258575b50505050507f73706563000000000000000000000000000000000000000000000000000000006111e9565b905090565b6000806000806000806000806122b061258d565b905060006122bc612626565b905060006122c86126bf565b905060006122d4612758565b905060006122e06127f1565b905060006122ec61288a565b905060018260ff16141561231b5785858585600086869c509c509c509c509c509c509c50505050505050612371565b600f8460ff1614156123485785858585600086869c509c509c509c509c509c509c50505050505050612371565b6000612352612923565b9050868686868487879d509d509d509d509d509d509d50505050505050505b90919293949596565b60008060008060008060008061238e61258d565b9050600061239a612626565b9050818160008060008060009850985098509850985098509850505090919293949596565b600073ffffffffffffffffffffffffffffffffffffffff168273ffffffffffffffffffffffffffffffffffffffff16141561242f576040517f08c379a00000000000000000000000000000000000000000000000000000000081526004016124269061413d565b60405180910390fd5b612438816112db565b15612478576040517f08c379a000000000000000000000000000000000000000000000000000000000815260040161246f906141a9565b60405180910390fd5b61248460008383611e22565b6001600360008473ffffffffffffffffffffffffffffffffffffffff1673ffffffffffffffffffffffffffffffffffffffff16815260200190815260200160002060008282546124d49190613b83565b92505081905550816002600083815260200190815260200160002060006101000a81548173ffffffffffffffffffffffffffffffffffffffff021916908373ffffffffffffffffffffffffffffffffffffffff160217905550808273ffffffffffffffffffffffffffffffffffffffff16600073ffffffffffffffffffffffffffffffffffffffff167fddf252ad1be2c89b69c2b068fc378daa952ba7f163c4a11628f55a4df523b3ef60405160405180910390a45050565b600061259960066111d3565b612621620186a06125aa60066111c5565b60088054806020026020016040519081016040528092919081815260200182805480156125f657602002820191906000526020600020905b8154815260200190600101908083116125e2575b50505050507f6261636b000000000000000000000000000000000000000000000000000000006111e9565b905090565b600061263260066111d3565b6126ba620186a061264360066111c5565b600980548060200260200160405190810160405280929190818152602001828054801561268f57602002820191906000526020600020905b81548152602001906001019080831161267b575b50505050507f736b696e000000000000000000000000000000000000000000000000000000006111e9565b905090565b60006126cb60066111d3565b612753620186a06126dc60066111c5565b600a80548060200260200160405190810160405280929190818152602001828054801561272857602002820191906000526020600020905b815481526020019060010190808311612714575b50505050507f68617400000000000000000000000000000000000000000000000000000000006111e9565b905090565b600061276460066111d3565b6127ec620186a061277560066111c5565b600b8054806020026020016040519081016040528092919081815260200182805480156127c157602002820191906000526020600020905b8154815260200190600101908083116127ad575b50505050507f65796500000000000000000000000000000000000000000000000000000000006111e9565b905090565b60006127fd60066111d3565b612885620186a061280e60066111c5565b600d80548060200260200160405190810160405280929190818152602001828054801561285a57602002820191906000526020600020905b815481526020019060010190808311612846575b50505050507f636c6f74000000000000000000000000000000000000000000000000000000006111e9565b905090565b600061289660066111d3565b61291e620186a06128a760066111c5565b600e8054806020026020016040519081016040528092919081815260200182805480156128f357602002820191906000526020600020905b8154815260200190600101908083116128df575b50505050507f61726d73000000000000000000000000000000000000000000000000000000006111e9565b905090565b600061292f60066111d3565b6129b7620186a061294060066111c5565b600c80548060200260200160405190810160405280929190818152602001828054801561298c57602002820191906000526020600020905b815481526020019060010190808311612978575b50505050507f6d6f7573000000000000000000000000000000000000000000000000000000006111e9565b905090565b8280546129c890613272565b90600052602060002090601f0160209004810192826129ea5760008555612a31565b82601f10612a0357805160ff1916838001178555612a31565b82800160010185558215612a31579182015b82811115612a30578251825591602001919060010190612a15565b5b509050612a3e9190612a9f565b5090565b604051806101000160405280600060ff168152602001600060ff168152602001600060ff168152602001600060ff168152602001600060ff168152602001600060ff168152602001600060ff168152602001600060ff1681525090565b5b80821115612ab8576000816000905550600101612aa0565b5090565b6000604051905090565b600080fd5b600080fd5b60007fffffffff0000000000000000000000000000000000000000000000000000000082169050919050565b612b0581612ad0565b8114612b1057600080fd5b50565b600081359050612b2281612afc565b92915050565b600060208284031215612b3e57612b3d612ac6565b5b6000612b4c84828501612b13565b91505092915050565b60008115159050919050565b612b6a81612b55565b82525050565b6000602082019050612b856000830184612b61565b92915050565b600081519050919050565b600082825260208201905092915050565b60005b83811015612bc5578082015181840152602081019050612baa565b83811115612bd4576000848401525b50505050565b6000601f19601f8301169050919050565b6000612bf682612b8b565b612c008185612b96565b9350612c10818560208601612ba7565b612c1981612bda565b840191505092915050565b60006020820190508181036000830152612c3e8184612beb565b905092915050565b6000819050919050565b612c5981612c46565b8114612c6457600080fd5b50565b600081359050612c7681612c50565b92915050565b600060208284031215612c9257612c91612ac6565b5b6000612ca084828501612c67565b91505092915050565b600073ffffffffffffffffffffffffffffffffffffffff82169050919050565b6000612cd482612ca9565b9050919050565b612ce481612cc9565b82525050565b6000602082019050612cff6000830184612cdb565b92915050565b612d0e81612cc9565b8114612d1957600080fd5b50565b600081359050612d2b81612d05565b92915050565b60008060408385031215612d4857612d47612ac6565b5b6000612d5685828601612d1c565b9250506020612d6785828601612c67565b9150509250929050565b612d7a81612c46565b82525050565b6000602082019050612d956000830184612d71565b92915050565b600080600060608486031215612db457612db3612ac6565b5b6000612dc286828701612d1c565b9350506020612dd386828701612d1c565b9250506040612de486828701612c67565b9150509250925092565b600080fd5b600080fd5b7f4e487b7100000000000000000000000000000000000000000000000000000000600052604160045260246000fd5b612e3082612bda565b810181811067ffffffffffffffff82111715612e4f57612e4e612df8565b5b80604052505050565b6000612e62612abc565b9050612e6e8282612e27565b919050565b600067ffffffffffffffff821115612e8e57612e8d612df8565b5b612e9782612bda565b9050602081019050919050565b82818337600083830152505050565b6000612ec6612ec184612e73565b612e58565b905082815260208101848484011115612ee257612ee1612df3565b5b612eed848285612ea4565b509392505050565b600082601f830112612f0a57612f09612dee565b5b8135612f1a848260208601612eb3565b91505092915050565b600060208284031215612f3957612f38612ac6565b5b600082013567ffffffffffffffff811115612f5757612f56612acb565b5b612f6384828501612ef5565b91505092915050565b600060208284031215612f8257612f81612ac6565b5b6000612f9084828501612d1c565b91505092915050565b600060ff82169050919050565b612faf81612f99565b82525050565b61010082016000820151612fcc6000850182612fa6565b506020820151612fdf6020850182612fa6565b506040820151612ff26040850182612fa6565b5060608201516130056060850182612fa6565b5060808201516130186080850182612fa6565b5060a082015161302b60a0850182612fa6565b5060c082015161303e60c0850182612fa6565b5060e082015161305160e0850182612fa6565b50505050565b60006101008201905061306d6000830184612fb5565b92915050565b61307c81612b55565b811461308757600080fd5b50565b60008135905061309981613073565b92915050565b600080604083850312156130b6576130b5612ac6565b5b60006130c485828601612d1c565b92505060206130d58582860161308a565b9150509250929050565b600067ffffffffffffffff8211156130fa576130f9612df8565b5b61310382612bda565b9050602081019050919050565b600061312361311e846130df565b612e58565b90508281526020810184848401111561313f5761313e612df3565b5b61314a848285612ea4565b509392505050565b600082601f83011261316757613166612dee565b5b8135613177848260208601613110565b91505092915050565b6000806000806080858703121561319a57613199612ac6565b5b60006131a887828801612d1c565b94505060206131b987828801612d1c565b93505060406131ca87828801612c67565b925050606085013567ffffffffffffffff8111156131eb576131ea612acb565b5b6131f787828801613152565b91505092959194509250565b6000806040838503121561321a57613219612ac6565b5b600061322885828601612d1c565b925050602061323985828601612d1c565b9150509250929050565b7f4e487b7100000000000000000000000000000000000000000000000000000000600052602260045260246000fd5b6000600282049050600182168061328a57607f821691505b6020821081141561329e5761329d613243565b5b50919050565b7f4552433732313a20617070726f76656420717565727920666f72206e6f6e657860008201527f697374656e7420746f6b656e0000000000000000000000000000000000000000602082015250565b6000613300602c83612b96565b915061330b826132a4565b604082019050919050565b6000602082019050818103600083015261332f816132f3565b9050919050565b7f4552433732313a20617070726f76616c20746f2063757272656e74206f776e6560008201527f7200000000000000000000000000000000000000000000000000000000000000602082015250565b6000613392602183612b96565b915061339d82613336565b604082019050919050565b600060208201905081810360008301526133c181613385565b9050919050565b7f4552433732313a20617070726f76652063616c6c6572206973206e6f74206f7760008201527f6e6572206e6f7220617070726f76656420666f7220616c6c0000000000000000602082015250565b6000613424603883612b96565b915061342f826133c8565b604082019050919050565b6000602082019050818103600083015261345381613417565b9050919050565b7f4552433732313a207472616e736665722063616c6c6572206973206e6f74206f60008201527f776e6572206e6f7220617070726f766564000000000000000000000000000000602082015250565b60006134b6603183612b96565b91506134c18261345a565b604082019050919050565b600060208201905081810360008301526134e5816134a9565b9050919050565b7f4f776e61626c653a2063616c6c6572206973206e6f7420746865206f776e6572600082015250565b6000613522602083612b96565b915061352d826134ec565b602082019050919050565b6000602082019050818103600083015261355181613515565b9050919050565b7f436c61696d696e672061204e465420636f737473206574686572000000000000600082015250565b600061358e601a83612b96565b915061359982613558565b602082019050919050565b600060208201905081810360008301526135bd81613581565b9050919050565b7f4552433732313a206f776e657220717565727920666f72206e6f6e657869737460008201527f656e7420746f6b656e0000000000000000000000000000000000000000000000602082015250565b6000613620602983612b96565b915061362b826135c4565b604082019050919050565b6000602082019050818103600083015261364f81613613565b9050919050565b7f4552433732313a2062616c616e636520717565727920666f7220746865207a6560008201527f726f206164647265737300000000000000000000000000000000000000000000602082015250565b60006136b2602a83612b96565b91506136bd82613656565b604082019050919050565b600060208201905081810360008301526136e1816136a5565b9050919050565b7f546f6b656e20646f6573206e6f74206578697374730000000000000000000000600082015250565b600061371e601583612b96565b9150613729826136e8565b602082019050919050565b6000602082019050818103600083015261374d81613711565b9050919050565b7f4552433732314d657461646174613a2055524920717565727920666f72206e6f60008201527f6e6578697374656e7420746f6b656e0000000000000000000000000000000000602082015250565b60006137b0602f83612b96565b91506137bb82613754565b604082019050919050565b600060208201905081810360008301526137df816137a3565b9050919050565b600081905092915050565b60006137fc82612b8b565b61380681856137e6565b9350613816818560208601612ba7565b80840191505092915050565b600061382e82856137f1565b915061383a82846137f1565b91508190509392505050565b7f4f776e61626c653a206e6577206f776e657220697320746865207a65726f206160008201527f6464726573730000000000000000000000000000000000000000000000000000602082015250565b60006138a2602683612b96565b91506138ad82613846565b604082019050919050565b600060208201905081810360008301526138d181613895565b9050919050565b7f53616665436173743a2076616c756520646f65736e27742066697420696e203860008201527f2062697473000000000000000000000000000000000000000000000000000000602082015250565b6000613934602583612b96565b915061393f826138d8565b604082019050919050565b6000602082019050818103600083015261396381613927565b9050919050565b7f4552433732313a206f70657261746f7220717565727920666f72206e6f6e657860008201527f697374656e7420746f6b656e0000000000000000000000000000000000000000602082015250565b60006139c6602c83612b96565b91506139d18261396a565b604082019050919050565b600060208201905081810360008301526139f5816139b9565b9050919050565b7f4552433732313a207472616e73666572206f6620746f6b656e2074686174206960008201527f73206e6f74206f776e0000000000000000000000000000000000000000000000602082015250565b6000613a58602983612b96565b9150613a63826139fc565b604082019050919050565b60006020820190508181036000830152613a8781613a4b565b9050919050565b7f4552433732313a207472616e7366657220746f20746865207a65726f2061646460008201527f7265737300000000000000000000000000000000000000000000000000000000602082015250565b6000613aea602483612b96565b9150613af582613a8e565b604082019050919050565b60006020820190508181036000830152613b1981613add565b9050919050565b7f4e487b7100000000000000000000000000000000000000000000000000000000600052601160045260246000fd5b6000613b5a82612c46565b9150613b6583612c46565b925082821015613b7857613b77613b20565b5b828203905092915050565b6000613b8e82612c46565b9150613b9983612c46565b9250827fffffffffffffffffffffffffffffffffffffffffffffffffffffffffffffffff03821115613bce57613bcd613b20565b5b828201905092915050565b7f4552433732313a20617070726f766520746f2063616c6c657200000000000000600082015250565b6000613c0f601983612b96565b9150613c1a82613bd9565b602082019050919050565b60006020820190508181036000830152613c3e81613c02565b9050919050565b7f4552433732313a207472616e7366657220746f206e6f6e20455243373231526560008201527f63656976657220696d706c656d656e7465720000000000000000000000000000602082015250565b6000613ca1603283612b96565b9150613cac82613c45565b604082019050919050565b60006020820190508181036000830152613cd081613c94565b9050919050565b6000613ce282612c46565b91507fffffffffffffffffffffffffffffffffffffffffffffffffffffffffffffffff821415613d1557613d14613b20565b5b600182019050919050565b7f4e487b7100000000000000000000000000000000000000000000000000000000600052601260045260246000fd5b6000613d5a82612c46565b9150613d6583612c46565b925082613d7557613d74613d20565b5b828204905092915050565b6000613d8b82612c46565b9150613d9683612c46565b925082613da657613da5613d20565b5b828206905092915050565b7f4e487b7100000000000000000000000000000000000000000000000000000000600052603260045260246000fd5b6000819050919050565b613dfb613df682612c46565b613de0565b82525050565b60008160601b9050919050565b6000613e1982613e01565b9050919050565b6000613e2b82613e0e565b9050919050565b613e43613e3e82612cc9565b613e20565b82525050565b6000819050919050565b613e64613e5f82612ad0565b613e49565b82525050565b6000613e768289613dea565b602082019150613e868288613dea565b602082019150613e968287613e32565b601482019150613ea68286613dea565b602082019150613eb68285613e53565b600482019150613ec68284613dea565b602082019150819050979650505050505050565b7f44657461696c48656c7065723a3a7069636b4974656d733a204e6f206974656d600082015250565b6000613f10602083612b96565b9150613f1b82613eda565b602082019050919050565b60006020820190508181036000830152613f3f81613f03565b9050919050565b600081519050919050565b600082825260208201905092915050565b6000613f6d82613f46565b613f778185613f51565b9350613f87818560208601612ba7565b613f9081612bda565b840191505092915050565b6000608082019050613fb06000830187612cdb565b613fbd6020830186612cdb565b613fca6040830185612d71565b8181036060830152613fdc8184613f62565b905095945050505050565b600081519050613ff681612afc565b92915050565b60006020828403121561401257614011612ac6565b5b600061402084828501613fe7565b91505092915050565b60008160f81b9050919050565b600061404182614029565b9050919050565b61405961405482612f99565b614036565b82525050565b600061406b828b614048565b60018201915061407b828a614048565b60018201915061408b8289614048565b60018201915061409b8288614048565b6001820191506140ab8287614048565b6001820191506140bb8286614048565b6001820191506140cb8285614048565b6001820191506140db8284614048565b6001820191508190509998505050505050505050565b7f4552433732313a206d696e7420746f20746865207a65726f2061646472657373600082015250565b6000614127602083612b96565b9150614132826140f1565b602082019050919050565b600060208201905081810360008301526141568161411a565b9050919050565b7f4552433732313a20746f6b656e20616c7265616479206d696e74656400000000600082015250565b6000614193601c83612b96565b915061419e8261415d565b602082019050919050565b600060208201905081810360008301526141c281614186565b905091905056fea2646970667358221220b51e3696b0fbf96b13990d24e13e89a8a9b3bc9203e756eaffaaa9c38faceaf164736f6c634300080a003368747470733a2f2f63727970746f6469636b732d6170692e6865726f6b756170702e636f6d2f746f6b656e2f",
  "immutableReferences": {},
  "source": "// SPDX-License-Identifier: MIT\n\npragma solidity >=0.8.3 <0.9.0;\n\nimport \"@openzeppelin/contracts/token/ERC721/ERC721.sol\";\nimport \"@openzeppelin/contracts/utils/Counters.sol\";\nimport \"@openzeppelin/contracts/access/Ownable.sol\";\n\nimport \"./UniqueMetadata.sol\";\n\n/// @title The CryptoDicks ERC721 smart contract.\n/// @author juliencrn\ncontract CryptoDicks is ERC721, UniqueMetadata, Ownable {\n    using Counters for Counters.Counter;\n\n    string internal _currentBaseURI =\n        \"https://cryptodicks-api.herokuapp.com/token/\";\n    uint256 public claimFee = 0.001 ether;\n\n    // Supply\n    uint256 public totalSupply = 10_000;\n    Counters.Counter internal _currentSupply;\n\n    // Mapping token ID to Metadata\n    mapping(uint256 => Metadata) idToMetadata;\n\n    constructor() ERC721(\"CryptoDicks\", \"DICK\") {\n        // Mint my own NFT tokens.\n        for (uint256 i = 0; i < 5; i++) {\n            mint();\n        }\n    }\n\n    /// Allow to mint a token\n    function claim() external payable {\n        // No fee for the Artist\n        if (owner() == msg.sender) {\n            mint();\n        } else {\n            require(msg.value == claimFee, \"Claiming a NFT costs ether\");\n\n            mint();\n\n            // Give ether to the contract owner\n            payable(owner()).transfer(claimFee);\n        }\n    }\n\n    /// For a a given token ID, returns its metadata\n    function get(uint256 _tokenId) external view returns (Metadata memory) {\n        require(_exists(_tokenId), \"Token does not exists\");\n        return idToMetadata[_tokenId];\n    }\n\n    /// @return the current supply\n    function currentSupply() external view returns (uint256) {\n        return _currentSupply.current();\n    }\n\n    /// Mint a new NFT\n    /// @return Created token id\n    function mint() internal returns (uint256) {\n        require(_currentSupply.current() < totalSupply);\n\n        // Increment the token supply.\n        _currentSupply.increment();\n        uint256 newTokenId = _currentSupply.current();\n\n        // Generate and save metadata\n        idToMetadata[newTokenId] = _createUniqueMetadata();\n\n        // Finally, mint!\n        _safeMint(msg.sender, newTokenId);\n\n        return newTokenId;\n    }\n\n    /// Return the good baseURI overriding the ERC721 method\n    function _baseURI() internal view virtual override returns (string memory) {\n        return _currentBaseURI;\n    }\n\n    /// Allow owner to set new baseURI\n    function setBaseURI(string memory _baseUri) public onlyOwner {\n        _currentBaseURI = _baseUri;\n    }\n\n    /// Allow owner to set new mint fee price, ether price will change.\n    function setClaimFee(uint256 _newPrice) external onlyOwner {\n        claimFee = _newPrice;\n    }\n}\n",
  "sourcePath": "/Users/juliencaron/www/cryptodicks/contract/contracts/CryptoDicks.sol",
  "compiler": {
    "name": "solc",
    "version": "0.8.10+commit.fc410830.Emscripten.clang"
  },
  "schemaVersion": "3.4.3",
  "updatedAt": "2021-12-10T19:07:00.449Z",
  "networkType": "ethereum",
  "devdoc": {
    "author": "juliencrn",
    "kind": "dev",
    "methods": {
      "approve(address,uint256)": {
        "details": "See {IERC721-approve}."
      },
      "balanceOf(address)": {
        "details": "See {IERC721-balanceOf}."
      },
      "currentSupply()": {
        "returns": {
          "_0": "the current supply"
        }
      },
      "getApproved(uint256)": {
        "details": "See {IERC721-getApproved}."
      },
      "isApprovedForAll(address,address)": {
        "details": "See {IERC721-isApprovedForAll}."
      },
      "name()": {
        "details": "See {IERC721Metadata-name}."
      },
      "owner()": {
        "details": "Returns the address of the current owner."
      },
      "ownerOf(uint256)": {
        "details": "See {IERC721-ownerOf}."
      },
      "renounceOwnership()": {
        "details": "Leaves the contract without owner. It will not be possible to call `onlyOwner` functions anymore. Can only be called by the current owner. NOTE: Renouncing ownership will leave the contract without an owner, thereby removing any functionality that is only available to the owner."
      },
      "safeTransferFrom(address,address,uint256)": {
        "details": "See {IERC721-safeTransferFrom}."
      },
      "safeTransferFrom(address,address,uint256,bytes)": {
        "details": "See {IERC721-safeTransferFrom}."
      },
      "setApprovalForAll(address,bool)": {
        "details": "See {IERC721-setApprovalForAll}."
      },
      "supportsInterface(bytes4)": {
        "details": "See {IERC165-supportsInterface}."
      },
      "symbol()": {
        "details": "See {IERC721Metadata-symbol}."
      },
      "tokenURI(uint256)": {
        "details": "See {IERC721Metadata-tokenURI}."
      },
      "transferFrom(address,address,uint256)": {
        "details": "See {IERC721-transferFrom}."
      },
      "transferOwnership(address)": {
        "details": "Transfers ownership of the contract to a new account (`newOwner`). Can only be called by the current owner."
      }
    },
    "title": "The CryptoDicks ERC721 smart contract.",
    "version": 1
  },
  "userdoc": {
    "kind": "user",
    "methods": {
      "claim()": {
        "notice": "Allow to mint a token"
      },
      "get(uint256)": {
        "notice": "For a a given token ID, returns its metadata"
      },
      "setBaseURI(string)": {
        "notice": "Allow owner to set new baseURI"
      },
      "setClaimFee(uint256)": {
        "notice": "Allow owner to set new mint fee price, ether price will change."
      }
    },
    "version": 1
  }
}